:0400000007EF00F016
:100008005482ACED01F020EF03F099EC03F0C2EC60
:1000180002F045C0BEFF1DB002D0899401D089848A
:100028001CB002D0899801D0898823B002D08B9067
:1000380001D08B801BB002D08A9E01D08A8E19B065
:1000480002D08A9A01D08A8A1950D8A404D0000113
:100058008B6B8B2B02D000018B6B8B3B8A508B19DF
:10006800EF0B8B198A6E1F04D8A465D1000E1F6E82
:10007800420E6019D8A41BD0D00E6125856F866BFF
:10008800FF0E8623000E886F0A0E876F4DEC03F073
:10009800000162518B6F8C6B85518B2786518C23A5
:1000A800D00E8B25456EFF0E8C21466EB2D7410EC1
:1000B8006019D8A4E5D0D00E6125856F866BFF0E38
:1000C8008623000E886F0A0E876F4DEC03F000013F
:1000D80062518B6F8C6B85518B2786518C23D00E88
:1000E8008B25816FFF0E8C21826FD00E6325856F63
:1000F800866BFF0E8623030E886FE80E876F4DEC24
:1001080003F0000166518B6F8C6B85518B278651EC
:100118008C23D00E6425856F866BFF0E8623000E18
:10012800886F640E876F4DEC03F0000185518B27B3
:1001380086518C23D00E6525856F866BFF0E86232E
:10014800000E886F0A0E876F4DEC03F00001855191
:100158008B2786518C23D00E8B257F6FFF0E8C2129
:10016800806FD00E6725856F866BFF0E8623270E5E
:10017800886F100E876F4DEC03F000016B518B6F89
:100188008C6B85518B2786518C23D00E6825856F03
:10019800866BFF0E8623030E886FE80E876F4DEC83
:1001A80003F0000185518B2786518C23D00E6925D9
:1001B800856F866BFF0E8623000E886F640E876F2F
:1001C8004DEC03F0000185518B2786518C23D00E0E
:1001D8006A25856F866BFF0E8623000E886F0A0ED0
:1001E800876F4DEC03F0000185518B2786518C23D6
:1001F800D00E8B25516EFF0E8C21526ED00E6C25C1
:10020800856F866BFF0E8623030E886FE80E876F57
:100218004DEC03F000016F518B6F8C6B85518B2770
:1002280086518C23D00E6D25856F866BFF0E862335
:10023800000E886F640E876F4DEC03F00001855146
:100248008B2786518C23D00E6E25856F866BFF0E0B
:100258008623000E886F0A0E876F4DEC03F00001AD
:1002680085518B2786518C23D00E8B258D6FFF0EE1
:100278008C218E6F6FC07DF07E6B010E226EC9D609
:10028800430E6019D8A408D01950D8A402D0010E82
:1002980001D0000E196EBDD6440E6019D8A422D024
:1002A8005350D8B41FD0300E6119D8A404D0010E11
:1002B800246E000E07D0310E6119D8A405D0010EA6
:1002C800246E010E236EA5D6320E6119D8B430D033
:1002D800330E6119D8A49DD62450D8A49AD686EC9A
:1002E80003F097D64D0E00016019D8A492D6310EAE
:1002F8006119D8A408D02550D8A402D0010E01D085
:10030800000E256E86D6320E6119D8A408D0215069
:10031800D8A402D0010E01D0000E216E7AD6330E79
:100328006119D8A476D62450D8A402D0010E01D0E1
:10033800000E246E6ED6C2B26CD60B0E00018B6F07
:10034800620EE82EFED78B2FFCD700F0C28261D652
:100358000600FACF33F0FBCF34F0E9CF35F0EACF1F
:1003680036F0E1CF37F0E2CF38F0D9CF39F0DACF35
:100378003AF0F3CF3BF0F4CF3CF0F6CF3DF0F7CFB7
:100388003EF0F8CF3FF0F5CF40F054C041F055C0F3
:1003980042F056C043F057C044F0F2A46FD0F29434
:1003A800000ED76EFA0ED66E114A122A0F4A102A7C
:1003B8000D4A0E2A0B4A0C2A2550D8B426D04F5085
:1003C800111823E150501218D8A41FD0000E126E35
:1003D800000E116E80B603D0326A322A01D0326A1A
:1003E80032463246324689503218F70B3218896E37
:1003F800094A0A2AC80E09180A10D8A406D0000EFD
:100408000A6E000E096E034A042A2450D8B490D00C
:100418004B500D1803E14C500E18D8A489D0000E8B
:100428000E6E000E0D6E82B203D0326A322A01D0EF
:10043800326A32468B503218FD0B32188B6E074ADF
:10044800082A51C02CF052C02DF0000E2F6E010E5C
:100458002E6E74EC03F007502C186AE108502D1822
:10046800D8A466D02350D8A402D0010E01D0000E23
:10047800236E000E086E000E076E5AD09EA017D08D
:100488002450D8B40CD082B203D0326A322A01D0B8
:10049800326A32468B503218FD0B32188B6E9E90A2
:1004A800D80ECF6EF00ECE6E014A022A41D09EAA17
:1004B80016D09E9A600E1724D96E000E1820DA6E98
:1004C800AECFDFFF174A182A0A0EAE18D8A430D0CC
:1004D800010E1F6E000E186E000E176E29D09EAC0E
:1004E80006D09E9CC3CF13F0C4CF14F021D0F0A047
:1004F80009D0F0902250D8A40BD02350D8A416D0FD
:10050800010E15D0F0A214D0F0922250D8B409D020
:10051800000E256E000E216E000E246E000E206E59
:1005280007D02350D8A402D0010E01D0000E236EAC
:1005380044C057F043C056F042C055F041C054F093
:1005480040C0F5FF3FC0F8FF3EC0F7FF3DC0F6FFD3
:100558003CC0F4FF3BC0F3FF3AC0DAFF39C0D9FF13
:1005680038C0E2FF37C0E1FF36C0EAFF35C0E9FF17
:1005780034C0FBFF33C0FAFF54921100000E806EA6
:10058800000E896E000E816E000E8A6E000E826E5D
:10059800000E8B6E0D0EC16E9280C294C296C298E8
:1005A800C29AAC0EC06E9D8C9E9CC280929492960C
:1005B8009298929A94909492939E939C94949398E0
:1005C800939AD09EF28EF28CF28AF294F184D58CB2
:1005D800D59AD596D550F80B0509D56ED59E000E3F
:1005E800D76E060ED66E9D809E909F80CD92CF0EC0
:1005F800CD16CD8093829384F086F088F090F092A7
:10060800F19AF198949C948EAC84B886CF0EAF6E14
:10061800AB8EAC98AC8AAB88AC9CAB9C9D8A9D9801
:10062800630ECB6ECF0EBD16FC0ECA16CA84BD80F3
:10063800BD82BD84BD8612003E0EF66E070EF76EB3
:10064800000EF86E0900F5CF8DF00900F5CF8EF099
:10065800220EF66E070EF76E000EF86E00EE45F0ED
:1006680010EE0FF00900F5CFEEFFE550E150FAE18A
:1006780000EE60F0250EEE6AE806FDE100EE01F0FE
:10068800250EEE6AE806FDE154905492000109EF48
:1006980000F0000185518703F3CF89F0F4CF8AF089
:1006A80085518803F3508A2786518703F3508A2798
:1006B80089C085F08AC086F0120026502802F3CF40
:1006C8002AF0F4CF2BF026502902F3502B2627507E
:1006D8002802F3502B262AC026F02BC027F0120040
:1006E8002EC026F02FC027F02CC028F02DC029F0EE
:1006F80061EC03F0D8902730306E26302C6E30C075
:100708002DF01200010E236ECD90D58E000E536E83
:10071800010E256E010E246E120032000100050044
:09072800840005000200222401F6
:0E073200D388D38AD38C030ED3121200A00FEB
:020000040020DA
:08000000FFFFFFFFFFFFFFFF00
:020000040030CA
:0E0000000009191EFF8180FF0FC00FE00F40A6
:00000001FF
