:0400000007EF00F016
:100008005182CCED01F01FEF03F05AEC03F0C9EC7C
:1000180002F0010E506E010E4F6E010E4E6E010E73
:100028004D6E41C0BEFF2AB002D0899401D08984A8
:1000380029B002D0899801D089882DB002D08B9040
:1000480001D08B8028B002D08A9E01D08A8E26B03B
:1000580002D08A9801D08A882650D8A404D00001FA
:100068007A6B7A2B02D000017A6B7A3B7A478A50F6
:100078007A19DF0B7A198A6E2C04D8A474D1000E71
:100088002C6E420E6019D8A41BD0D00E6125746F57
:10009800756BFF0E7523000E776F0A0E766F40ECB6
:1000A80003F0000162517A6F7B6B74517A277551A6
:1000B8007B23D00E7A25416EFF0E7B21426E5FD1E5
:1000C800410E6019D8A4E5D0D00E6125746F756B08
:1000D800FF0E7523000E776F0A0E766F40EC03F063
:1000E800000162517A6F7B6B74517A2775517B23BB
:1000F800D00E7A25126EFF0E7B21136ED00E63256B
:10010800746F756BFF0E7523030E776FE80E766FAD
:1001180040EC03F0000166517A6F7B6B74517A27CB
:1001280075517B23D00E6425746F756BFF0E752394
:10013800000E776F640E766F40EC03F00001745187
:100148007A2775517B23D00E6525746F756BFF0E6A
:100158007523000E776F0A0E766F40EC03F00001EE
:1001680074517A2775517B23D00E7A25106EFF0EB5
:100178007B21116ED00E6725746F756BFF0E75238A
:10018800270E776F100E766F40EC03F000016B516D
:100198007A6F7B6B74517A2775517B23D00E682553
:1001A800746F756BFF0E7523030E776FE80E766F0D
:1001B80040EC03F0000174517A2775517B23D00E6F
:1001C8006925746F756BFF0E7523000E776F640ECB
:1001D800766F40EC03F0000174517A2775517B2348
:1001E800D00E6A25746F756BFF0E7523000E776F3E
:1001F8000A0E766F40EC03F0000174517A277551AE
:100208007B23D00E7A250E6EFF0E7B210F6ED00E4B
:100218006C25746F756BFF0E7523030E776FE80EF0
:10022800766F40EC03F000016F517A6F7B6B74516D
:100238007A2775517B23D00E6D25746F756BFF0E71
:100248007523000E776F640E766F40EC03F00001A3
:1002580074517A2775517B23D00E6E25746F756B98
:10026800FF0E7523000E776F0A0E766F40EC03F0D1
:10027800000174517A2775517B23D00E7A250C6EB4
:10028800FF0E7B210D6E6FC00AF00B6A010E276E00
:1002980076D0430E6019D8A408D02650D8A402D02E
:1002A800010E01D0000E266E6AD0440E6019D8A443
:1002B80016D0300E6119D8A404D0010E4E6E000E6F
:1002C80007D0310E6119D8A405D0010E4E6E010E6B
:1002D8002D6E55D0320E6119D8A451D041D0450E9B
:1002E8006019D8A418D0300E6119D8A408D04D5080
:1002F800D8A402D0010E01D0000E4D6E40D0310EB0
:100308006119D8A43CD02850D8A402D0010E01D03D
:10031800000E286E34D04D0E6019D8A430D0310E9E
:100328006119D8A408D05050D8A402D0010E01D029
:10033800000E506E24D0320E6119D8A408D04F5048
:10034800D8A402D0010E01D0000E4F6E18D0330E83
:100358006119D8A414D04E50D8A402D0010E01D0EF
:10036800000E4E6E0CD0C2B20AD00B0E00017A6F8E
:10037800620EE82EFED77A2FFCD700F0C282085012
:10038800161803E109501718D8A44BD6000E48D602
:100398000600FACF2FF0FBCF30F0E9CF31F0EACFEB
:1003A80032F0E1CF33F0E2CF34F0D9CF35F0DACF05
:1003B80036F0F3CF37F0F4CF38F0F6CF39F0F7CF87
:1003C8003AF0F8CF3BF0F5CF3CF051C03DF052C0C9
:1003D8003EF053C03FF054C040F0F2A47DD0F294F8
:1003E800000ED76EFA0ED66E1E4A1F2A1C4A1D2A08
:1003F8001A4A1B2A184A192A5050D8B419D04B50F7
:100408001E1816E14C501F18D8A412D080B603D07D
:100418002E6A2E2A01D02E6A2E462E462E46895046
:100428002E18F70B2E18896E000E1F6E000E1E6E0A
:100438004F50D8B418D049501C1815E14A501D180F
:10044800D8A411D080BA03D02E6A2E2A01D02E6AE1
:100458002E3A2E4689502E18DF0B2E18896E000E64
:100468001D6E000E1C6E4E50D8B417D047501A1887
:1004780014E148501B18D8A410D082B203D02E6AB9
:100488002E2A01D02E6A2E468B502E18FD0B2E18C0
:100498008B6E000E1B6E000E1A6E4D50D8B44FD0E6
:1004A800455018184CE146501918D8A448D081BCBA
:1004B80003D02E6A2E2A01D02E6A2E3A2E462E46B8
:1004C8008A502E18BF0B2E188A6E000E196E000E59
:1004D800186E164A172A33D09EAA1AD09E9A600E12
:1004E8002424D96E000E2520DA6EAECFDFFF244A11
:1004F800252A0A0EAE18D8A422D060C0ADFF9EA847
:10050800FED7010E2C6E000E256E000E246E17D03D
:100518009EAC06D09E9CC3CF20F0C4CF21F00FD054
:10052800F0A005D0F0902D50D8A407D004D0F0A2A8
:1005380006D0F092F8D7010E01D0000E2D6E40C003
:1005480054F03FC053F03EC052F03DC051F03CC0A3
:10055800F5FF3BC0F8FF3AC0F7FF39C0F6FF38C0D7
:10056800F4FF37C0F3FF36C0DAFF35C0D9FF34C017
:10057800E2FF33C0E1FF32C0EAFF31C0E9FF30C01B
:10058800FBFF2FC0FAFF51921100000E806E000E83
:10059800896E000E816E000E8A6E000E826E000E4D
:1005A8008B6E0D0EC16E9280C294C296C298C29A8A
:1005B800AC0EC06E9D8C9E9CC2809294929692982E
:1005C800929A94909492939E939C94949398939ACD
:1005D800D09EF28EF28CF28AF294F184D58CD59A60
:1005E800D596D550F80B0509D56E000ED76E060EB8
:1005F800D66E93829384F086F088F090F092F19A08
:10060800F198949C948EAC84B886CF0EAF6EAB8E66
:10061800AC98AC8AAB88AC9CAB9C9D8A9D98630EC9
:10062800CB6ECF0EBD16FC0ECA16CA84BD80BD8225
:10063800BD84BD861200A80EF66E060EF76E000E7B
:10064800F86E00EE41F010EE0CF00900F5CFEEFF69
:10065800E550E150FAE100EE60F0140EEE6AE806AB
:10066800FDE100EE01F02D0EEE6AE806FDE1519085
:100678005192000109EF00F0000174517603F3CFA5
:1006880078F0F4CF79F074517703F35079277551E6
:100698007603F350792778C074F079C075F01200AA
:1006A800320001000500050005000500D388D38A43
:0806B800D38C030ED3121200D3
:020000040020DA
:08000000FFFFFFFFFFFFFFFF00
:020000040030CA
:0E0000000009191EFF8180FF0FC00FE00F40A6
:00000001FF
