:0400000007EF00F016
:1000080053824BED01F0B2EF02F0E1EC02F061EC4B
:1000180002F0010E526E4EC0BEFF35B002D0899478
:1000280001D0898434B002D0899801D0898833B04E
:1000380002D08B9001D08B8032B002D08A9E01D042
:100048008A8E3704D8A41FD1000E376E420E0118CD
:10005800D8A41CD0D00E02240001606F616BFF0E83
:100068006123000E636F0A0E626FCDEC02F003503D
:100078000001666F676B6051662761516723D00E78
:1000880066254E6EFF0E67214F6EC3D7410E0118CD
:10009800D8A4E6D0D00E02240001606F616BFF0E79
:1000A8006123000E636F0A0E626FCDEC02F00350FD
:1000B8000001666F676B6051662761516723D00E38
:1000C80066251D6EFF0E67211E6ED00E0424606F1C
:1000D800616BFF0E6123030E636FE80E626FCDEC58
:1000E80002F007500001666F676B60516627615127
:1000F8006723D00E0524606F616BFF0E6123000E2D
:10010800636F640E626FCDEC02F0000160516627E8
:1001180061516723D00E0624606F616BFF0E612367
:10012800000E636F0A0E626FCDEC02F000016051A1
:10013800662761516723D00E66251B6EFF0E672167
:100148001C6ED00E0824606F616BFF0E6123270EB2
:10015800636F100E626FCDEC02F00C500001666FF9
:10016800676B6051662761516723D00E0924606F61
:10017800616BFF0E6123030E636FE80E626FCDECB7
:1001880002F000016051662761516723D00E0A24EE
:10019800606F616BFF0E6123000E636F640E626F08
:1001A800CDEC02F000016051662761516723D00E43
:1001B8000B24606F616BFF0E6123000E636F0A0EE4
:1001C800626FCDEC02F00001605166276151672330
:1001D800D00E6625196EFF0E67211A6ED00E0D24FB
:1001E800606F616BFF0E6123030E636FE80E626F31
:1001F800CDEC02F010500001666F676B6051662706
:1002080061516723D00E0E24606F616BFF0E61236E
:10021800000E636F640E626FCDEC02F00001605156
:10022800662761516723D00E0F24606F616BFF0E44
:100238006123000E636F0A0E626FCDEC02F00001BD
:100248006051662761516723D00E6625176EFF0E31
:100258006721186E10C015F0166A010E316ED9D6D6
:10026800440E0118D8A4D5D6300E0218D8A402D04E
:10027800000E05D0310E0218D8A4CBD6010E336E6D
:10028800010E396EC6D6C2B2C4D6C282C2D6060024
:10029800FACF3CF0FBCF3DF0E9CF3EF0EACF3FF09C
:1002A800E1CF40F0E2CF41F0D9CF42F0DACF43F0CE
:1002B800F3CF44F0F4CF45F0F6CF46F0F7CF47F050
:1002C800F8CF48F0F5CF49F053C04AF054C04BF08E
:1002D80055C04CF056C04DF0F2A475D0F2942D4A9A
:1002E8002E2A000ED76EC80ED66E274A282A254A0F
:1002F800262A234A242A214A222A5250D8B417D01F
:10030800190E27182810D8A412D080B603D03B6A3B
:100318003B2A01D03B6A3B463B463B4689503B184B
:10032800F70B3B18896E000E286E000E276E3A50A8
:10033800D8B416D0020E25182610D8A411D080BA29
:1003480003D03B6A3B2A01D03B6A3B3A3B46895083
:100358003B18DF0B3B18896E000E266E000E256ECB
:100368003950D8B415D0050E23182410D8A410D0AD
:1003780082B203D03B6A3B2A01D03B6A3B468B5092
:100388003B18FD0B3B188B6E000E246E000E236E7F
:100398003850D8B46CD0050E21182210D8A467D0D4
:1003A80081BC03D03B6A3B2A01D03B6A3B3A3B46BF
:1003B8003B468A503B18BF0B3B188A6E000E226ED4
:1003C800000E216E54D09EAA1AD09E9A010E2F2498
:1003D800D96E000E3020DA6EAECFDFFF2F4A302AFA
:1003E8000A0EAE18D8A443D001C0ADFF9EA8FED710
:1003F800010E376E000E306E000E2F6E38D09EAC98
:1004080030D09E9CC230E8320F0B0009D8A405D02A
:10041800C3CF2BF0C4CF2CF00AD0C230E8320F0B78
:10042800E806D8A404D0C3CF29F0C4CF2AF01A0E06
:100438003B6EF80EE82EFED73B2EFCD700D0C2301C
:10044800E8320F0B0009D8A403D03B6A3B2A01D03D
:100458003B6A3B463B46C2503B18C30B3B18C26E37
:1004680006D0F0A002D0F09002D0F0B2F0924DC0C9
:1004780056F04CC055F04BC054F04AC053F049C038
:10048800F5FF48C0F8FF47C0F7FF46C0F6FF45C074
:10049800F4FF44C0F3FF43C0DAFF42C0D9FF41C0B4
:1004A800E2FF40C0E1FF3FC0EAFF3EC0E9FF3DC0B8
:1004B800FBFF3CC0FAFF53921100000E806E000E45
:1004C800896E000E816E000E8A6E000E826E000E1E
:1004D8008B6E0D0EC16E92809282C294C296C298A3
:1004E800C29AAC0EC06E9D8C9E9CC28092949296CD
:1004F8009298929A94909492939E939C9494D09E5E
:10050800F28EF28CF28AF294F184D58CD59AD59633
:10051800D550F80B0509D56E000ED76E060ED66EAF
:10052800F086F088F090F092949C948EAC84B88613
:10053800CF0EAF6EAB8EAC98AC8AAB88AC9CAB9C44
:100548009D8A9D98630ECB6ECF0EBD16FC0ECA1603
:10055800CA84BD80BD82BD84BD861200CE0EF66EF3
:10056800050EF76E000EF86E00EE4EF010EE04F079
:100578000900F5CFEEFFE550E150FAE100EE01F099
:100588003A0EEE6AE806FDE153905392000109EF36
:1005980000F0000160516203F3CF64F0F4CF65F01E
:1005A80060516303F350652761516203F350652777
:1005B80064C060F065C061F01200D388D38AD38C20
:0A05C800030ED312120032000100EE
:020000040020DA
:08000000FFFFFFFFFFFFFFFF00
:020000040030CA
:0E0000000009191EFF8180FF0FC00FE00F40A6
:00000001FF
