:0400000007EF00F016
:100008005382DFED01F043EF03F07EEC03F0EDECFB
:1000180002F0010E526E010E516E010E506E010E6D
:100028004F6E43C0BEFF2CB002D0899401D08984A2
:100038002BB002D0899801D089882FB002D08B903C
:1000480001D08B802AB002D08A9E01D08A8E28B037
:1000580002D08A9801D08A882850D8A404D00001F8
:100068007A6B7A2B02D000017A6B7A3B7A478A50F6
:100078007A19DF0B7A198A6E2E04D8A474D1000E6F
:100088002E6E420E6019D8A41BD0D00E6125746F55
:10009800756BFF0E7523000E776F0A0E766F64EC92
:1000A80003F0000162517A6F7B6B74517A277551A6
:1000B8007B23D00E7A25436EFF0E7B21446E72D1CE
:1000C800410E6019D8A4E5D0D00E6125746F756B08
:1000D800FF0E7523000E776F0A0E766F64EC03F03F
:1000E800000162517A6F7B6B74517A2775517B23BB
:1000F800D00E7A25126EFF0E7B21136ED00E63256B
:10010800746F756BFF0E7523030E776FE80E766FAD
:1001180064EC03F0000166517A6F7B6B74517A27A7
:1001280075517B23D00E6425746F756BFF0E752394
:10013800000E776F640E766F64EC03F00001745163
:100148007A2775517B23D00E6525746F756BFF0E6A
:100158007523000E776F0A0E766F64EC03F00001CA
:1001680074517A2775517B23D00E7A25106EFF0EB5
:100178007B21116ED00E6725746F756BFF0E75238A
:10018800270E776F100E766F64EC03F000016B5149
:100198007A6F7B6B74517A2775517B23D00E682553
:1001A800746F756BFF0E7523030E776FE80E766F0D
:1001B80064EC03F0000174517A2775517B23D00E4B
:1001C8006925746F756BFF0E7523000E776F640ECB
:1001D800766F64EC03F0000174517A2775517B2324
:1001E800D00E6A25746F756BFF0E7523000E776F3E
:1001F8000A0E766F64EC03F0000174517A2775518A
:100208007B23D00E7A250E6EFF0E7B210F6ED00E4B
:100218006C25746F756BFF0E7523030E776FE80EF0
:10022800766F64EC03F000016F517A6F7B6B745149
:100238007A2775517B23D00E6D25746F756BFF0E71
:100248007523000E776F640E766F64EC03F000017F
:1002580074517A2775517B23D00E6E25746F756B98
:10026800FF0E7523000E776F0A0E766F64EC03F0AD
:10027800000174517A2775517B23D00E7A250C6EB4
:10028800FF0E7B210D6E6FC00AF00B6A010E296EFE
:1002980089D0430E6019D8A408D02850D8A402D019
:1002A800010E01D0000E286E7DD0440E6019D8A42E
:1002B80016D0300E6119D8A404D0010E506E000E6D
:1002C80007D0310E6119D8A405D0010E506E010E69
:1002D8002F6E68D0320E6119D8A464D041D0450E73
:1002E8006019D8A418D0300E6119D8A408D04F507E
:1002F800D8A402D0010E01D0000E4F6E53D0310E9B
:100308006119D8A44FD02A50D8A402D0010E01D028
:10031800000E2A6E47D04D0E6019D8A443D0310E76
:100328006119D8A408D05250D8A402D0010E01D027
:10033800000E526E37D0320E6119D8A408D0515031
:10034800D8A402D0010E01D0000E516E2BD0330E6E
:100358006119D8A427D05050D8A402D0010E01D0DA
:10036800000E506E1FD0C2B21DD00B0E00017A6F66
:10037800620EE82EFED77A2FFCD700F0C230E832A2
:100388000F0B0009D8A404D000017A6B7A2B02D095
:1003980000017A6B7A477A47C2507A19C30B7A19E7
:1003A800C26EC2820850161803E109501718D8A463
:1003B80038D6000E35D60600FACF31F0FBCF32F032
:1003C800E9CF33F0EACF34F0E1CF35F0E2CF36F0C1
:1003D800D9CF37F0DACF38F0F3CF39F0F4CF3AF09D
:1003E800F6CF3BF0F7CF3CF0F8CF3DF0F5CF3EF03D
:1003F80053C03FF054C040F055C041F056C042F0E1
:10040800F2A47DD0F294000ED76EFA0ED66E1E4A74
:100418001F2A1C4A1D2A1A4A1B2A184A192A5250EE
:10042800D8B419D04D501E1816E14E501F18D8A434
:1004380012D080B603D0306A302A01D0306A3046F4
:100448003046304689503018F70B3018896E000E48
:100458001F6E000E1E6E5150D8B418D04B501C1889
:1004680015E14C501D18D8A411D080BA03D0306AB9
:10047800302A01D0306A303A304689503018DF0BC4
:100488003018896E000E1D6E000E1C6E5050D8B4C8
:1004980017D049501A1814E14A501B18D8A410D084
:1004A80082B203D0306A302A01D0306A30468B508D
:1004B8003018FD0B30188B6E000E1B6E000E1A6E76
:1004C8004F50D8B460D0475018185DE148501918FB
:1004D800D8A459D081BC03D0306A302A01D0306A00
:1004E800303A304630468A503018BF0B30188A6E82
:1004F800000E196E000E186E164A172A44D09EAACE
:100508001AD09E9A600E2624D96E000E2720DA6E25
:10051800AECFDFFF264A272A0A0EAE18D8A433D05A
:1005280060C0ADFF9EA8FED7010E2E6E000E276E8E
:10053800000E266E28D09EAC17D09E9CC230E832A2
:100548000F0B0009D8A405D0C3CF22F0C4CF23F0E5
:100558001AD0C230E8320F0BE806D8A414D0C3CFA3
:1005680020F0C4CF21F00FD0F0A005D0F0902F508C
:10057800D8A407D004D0F0A206D0F092F8D7010E84
:1005880001D0000E2F6E42C056F041C055F040C059
:1005980054F03FC053F03EC0F5FF3DC0F8FF3CC0EB
:1005A800F7FF3BC0F6FF3AC0F4FF39C0F3FF38C08D
:1005B800DAFF37C0D9FF36C0E2FF35C0E1FF34C0EB
:1005C800EAFF33C0E9FF32C0FBFF31C0FAFF5392A4
:1005D8001100000E806E000E896E000E816E000EF6
:1005E8008A6E000E826E000E8B6E0D0EC16E9280AA
:1005F800C294C296C298C29AAC0EC06E9D8C9E9C44
:10060800C280929492969298929A94909492939E81
:10061800939C94949398939AD09EF28EF28CF28A3B
:10062800F294F184D58CD59AD596D550F80B050956
:10063800D56E000ED76E060ED66E93829384F08622
:10064800F088F090F092F19AF198949C948EAC8492
:10065800B886CF0EAF6EAB8EAC98AC8AAB88AC9C2C
:10066800AB9C9D8A9D98630ECB6ECF0EBD16FC0E7B
:10067800CA16CA84BD80BD82BD84BD861200F00E34
:10068800F66E060EF76E000EF86E00EE43F010EEF2
:100698000CF00900F5CFEEFFE550E150FAE100EE6D
:1006A80060F0140EEE6AE806FDE100EE01F02F0E90
:1006B800EE6AE806FDE153905392000109EF00F05D
:1006C800000174517603F3CF78F0F4CF79F07451C8
:1006D8007703F350792775517603F350792778C05B
:1006E80074F079C075F012003200010005000500B1
:1006F80005000500D388D38AD38C030ED3121200C9
:020000040020DA
:08000000FFFFFFFFFFFFFFFF00
:020000040030CA
:0E0000000009191EFF8180FF0FC00FE00F40A6
:00000001FF
