:0400000007EF00F016
:100008005482D7ED01F071EF03F0DAEC03F01BEC4A
:1000180003F043C0BEFF1AB002D0899401D089848E
:1000280019B002D0899801D089881FB002D08B906E
:1000380001D08B8018B002D08A9E01D08A8E17B06A
:1000480002D08A9A01D08A8A1750D8A404D0000115
:100058008B6B8B2B02D000018B6B8B3B8A508B19DF
:10006800EF0B8B198A6E010E536E1C04D8A47DD138
:10007800000E1C6E420E6019D8A41BD0D00E61254C
:10008800856F866BFF0E8623000E886F0A0E876FBA
:1000980092EC03F0000162518B6F8C6B85518B27BA
:1000A80086518C23D00E8B25436EFF0E8C21446E17
:1000B80068D1410E6019D8A4E5D0D00E6125856FAE
:1000C800866BFF0E8623000E886F0A0E876F92ECF0
:1000D80003F0000162518B6F8C6B85518B27865121
:1000E8008C23D00E8B25816FFF0E8C21826FD00E52
:1000F8006325856F866BFF0E8623030E886FE80ED7
:10010800876F92EC03F0000166518B6F8C6B855101
:100118008B2786518C23D00E6425856F866BFF0E46
:100128008623000E886F640E876F92EC03F000013F
:1001380085518B2786518C23D00E6525856F866B5C
:10014800FF0E8623000E886F0A0E876F92EC03F06D
:10015800000185518B2786518C23D00E8B257F6F0C
:10016800FF0E8C21806FD00E6725856F866BFF0E82
:100178008623270E886F100E876F92EC03F000011C
:100188006B518B6F8C6B85518B2786518C23D00ECE
:100198006825856F866BFF0E8623030E886FE80E31
:1001A800876F92EC03F0000185518B2786518C23D1
:1001B800D00E6925856F866BFF0E8623000E886F2B
:1001C800640E876F92EC03F0000185518B278651EE
:1001D8008C23D00E6A25856F866BFF0E8623000E52
:1001E800886F0A0E876F92EC03F0000185518B2708
:1001F80086518C23D00E8B254F6EFF0E8C21506EAE
:10020800D00E6C25856F866BFF0E8623030E886FD4
:10021800E80E876F92EC03F000016F518B6F8C6BC7
:1002280085518B2786518C23D00E6D25856F866B63
:10023800FF0E8623000E886F640E876F92EC03F022
:10024800000185518B2786518C23D00E6E25856F32
:10025800866BFF0E8623000E886F0A0E876F92EC5E
:1002680003F0000185518B2786518C23D00E8B25F6
:10027800516EFF0E8C21526E6FC07DF07E6B010EA9
:100288001D6E7FD0430E6019D8A408D01750D8A48B
:1002980002D0010E01D0000E176E73D0440E601903
:1002A800D8A41FD01D50D8A41CD0300E6119D8A4D2
:1002B80004D0010E206E000E07D0310E6119D8A4AB
:1002C80005D0010E206E010E1F6E5BD0320E611933
:1002D800D8A457D0000E206E010E1F6E010E236E9B
:1002E80050D0450E6019D8A418D0300E6119D8A482
:1002F80008D01E50D8A402D0010E01D0000E1E6EE8
:1003080040D0310E6119D8A43CD01850D8A402D0DE
:10031800010E01D0000E186E34D04D0E6019D8A40D
:1003280030D0310E6119D8A408D05350D8A402D0C7
:10033800010E01D0000E536E24D0320E6119D8A4DC
:1003480008D02150D8A402D0010E01D0000E216E91
:1003580018D0330E6119D8A414D02050D8A402D0D4
:10036800010E01D0000E206E0CD0C2B20AD00B0EC6
:1003780000018B6F620EE82EFED78B2FFCD700F0A2
:10038800C2822350D8B402D0010E206E2250D8B4B5
:1003980040D6000E536E000E206E5A0ED3EC03F0BA
:1003A800000E226E36D60600FACF31F0FBCF32F0BF
:1003B800E9CF33F0EACF34F0E1CF35F0E2CF36F0D1
:1003C800D9CF37F0DACF38F0F3CF39F0F4CF3AF0AD
:1003D800F6CF3BF0F7CF3CF0F8CF3DF0F5CF3EF04D
:1003E80054C03FF055C040F056C041F057C042F0ED
:1003F800F2A4B6D0F294000ED76EFA0ED66E0F4A5B
:10040800102A0D4A0E2A0B4A0C2A094A0A2A535066
:10041800D8B432D04D500F182FE14E501018D8A430
:100428002BD080B603D0306A302A01D0306A3046EB
:100438003046304689503018F70B3018896E000E58
:10044800106E000E0F6E2350D8B416D0074A082A33
:10045800C80E07180810D8A406D0000E086E000EA3
:10046800076E014A022A5150011806E1525002183B
:10047800D8A402D0010E226E2150D8B418D04B5007
:100488000D1815E14C500E18D8A411D080BA03D01D
:10049800306A302A01D0306A303A304689503018F4
:1004A800DF0B3018896E000E0E6E000E0D6E205098
:1004B800D8B437D049500B1834E14A500C18D8A496
:1004C80030D082B203D0306A302A01D0306A304648
:1004D8008B503018FD0B30188B6E000E0C6E000E12
:1004E8000B6E2304D8A41DD0054A062A4FC02AF053
:1004F80050C02BF0000E2D6E010E2C6EB9EC03F0DF
:100508002A50055C2B500658D8A00BD01F50D8A4F1
:1005180002D0010E01D0000E1F6E000E066E000EF6
:10052800056E1E50D8B45DD0475009185AE148509E
:100538000A18D8A456D081BC03D0306A302A01D01A
:10054800306A303A304630468A503018BF0B30187F
:100558008A6E000E0A6E000E096E034A042A41D004
:100568009EAA16D09E9A600E1524D96E000E1620EB
:10057800DA6EAECFDFFF154A162A0A0EAE18D8A4D7
:1005880030D0010E1C6E000E166E000E156E29D0AE
:100598009EAC06D09E9CC3CF11F0C4CF12F021D0E0
:1005A800F0A009D0F0901D50D8A40BD01F50D8A4AB
:1005B80016D0010E15D0F0A214D0F0921D50D8B468
:1005C80009D0000E536E000E216E000E206E000E34
:1005D8001E6E07D01F50D8A402D0010E01D0000E05
:1005E8001F6E42C057F041C056F040C055F03FC0A2
:1005F80054F03EC0F5FF3DC0F8FF3CC0F7FF3BC0DC
:10060800F6FF3AC0F4FF39C0F3FF38C0DAFF37C04D
:10061800D9FF36C0E2FF35C0E1FF34C0EAFF33C07E
:10062800E9FF32C0FBFF31C0FAFF54921100000EFF
:10063800806E000E896E000E816E000E8A6E000EAE
:10064800826E000E8B6E0D0EC16E9280C294C296A1
:10065800C298C29AAC0EC06E9D8C9E9CC280929429
:1006680092969298929A94909492939E939C949432
:100678009398939AD09EF28EF28CF28AF294F18437
:10068800D58CD59AD596D550F80B0509D56E000EA0
:10069800D76E060ED66E93829384F086F088F0901B
:1006A800F092F19AF198949C948EAC84B886CF0E0F
:1006B800AF6EAB8EAC98AC8AAB88AC9CAB9C9D8A79
:1006C8009D98630ECB6ECF0EBD16FC0ECA16CA845B
:1006D800BD80BD82BD84BD861200960EF66E070EE3
:1006E800F76E000EF86E00EE43F010EE10F0090001
:1006F800F5CFEEFFE550E150FAE100EE60F0250E8F
:10070800EE6AE806FDE100EE01F0230EEE6AE80667
:10071800FDE154905492000109EF00F00001855169
:100728008703F3CF89F0F4CF8AF085518803F3501B
:100738008A2786518703F3508A2789C085F08AC0A3
:1007480086F0120024502602F3CF28F0F4CF29F0C7
:1007580024502702F350292625502602F350292633
:1007680028C024F029C025F012002CC024F02DC088
:1007780025F02AC026F02BC027F0A6EC03F0D8906D
:1007880025302E6E24302A6E2EC02BF01200320037
:100798000100050084000500020028231400000160
:1007A800856F9EA8FED785C0ADFF1200D388D38A77
:0807B800D38C030ED3121200D2
:020000040020DA
:08000000FFFFFFFFFFFFFFFF00
:020000040030CA
:0E0000000009191EFF8180FF0FC00FE00F40A6
:00000001FF
