:0400000007EF00F016
:1000080054820BED02F0D2EF03F0B3EC04F074EC81
:1000180003F048C0BEFF1FB002D0899401D0898484
:100028001EB002D0899801D0898825B002D08B9063
:1000380001D08B801DB002D08A9E01D08A8E1AB062
:1000480002D08A9A01D08A8A1A50D8A404D0000112
:10005800896B892B02D00001896B893B8A508919E9
:10006800EF0B89198A6E2104D8A4C4D1000E216E21
:10007800410E6019D8A49BD0D00E6125836F846B84
:10008800FF0E8423000E866F0A0E856F2EEC04F097
:1000980000016251896F8A6B8351892784518A23B1
:1000A800D00E8925016EFF0E8A21026ED00E6325BF
:1000B800836F846BFF0E8423030E866FE80E856FB3
:1000C8002EEC04F000016651896F8A6B83518927F1
:1000D80084518A23D00E6425836F846BFF0E84239A
:1000E800000E866F640E856F2EEC04F000018351BC
:1000F800892784518A23D00E6525836F846BFF0E70
:100108008423000E866F0A0E856F2EEC04F0000122
:100118008351892784518A23D00E89254E6EFF0E7C
:100128008A214F6ED00E6725836F846BFF0E842360
:10013800030E866FE80E856F2EEC04F000016A51FD
:10014800896F8A6B8351892784518A23D00E682549
:10015800836F846BFF0E8423000E866F640E856F99
:100168002EEC04F000018351892784518A23D00E94
:100178006925836F846BFF0E8423000E866F0A0E39
:10018800856F2EEC04F000018351892784518A235E
:10019800D00E8925506EFF0E8A21516E010E1C6EFD
:1001A80001C083F002C084F005EC04F032D7420E9F
:1001B80000016019D8A41BD0D00E6125836F846B11
:1001C800FF0E8423000E866F0A0E856F2EEC04F056
:1001D80000016251896F8A6B8351892784518A2370
:1001E800D00E8925486EFF0E8A21496E12D7440E1B
:1001F8006019D8A420D05250D8B41DD0300E61193F
:10020800D8A404D0010E266E000E38D0310E611924
:10021800D8B431D0320E6119D8B46DD0330E61190B
:10022800D8A4F7D62650D8A4F4D61C50D8B4F1D602
:1002380099EC04F0EED6510E00016019D8A40BD049
:100248002250D8B404D04E0EA6EC04F0E2D6590ED3
:10025800A6EC04F0DED6440E00016019D8A41BD029
:100268001950D8B418D0300E6119D8B4CBD7310E84
:100278006119D8A405D0010E266E010E256EC9D6C7
:10028800320E6119D8B437D0330E6119D8A4C1D64B
:10029800000E266E24D0460E6019D8A406D022502F
:1002A800D8B4B7D667EC04F0B4D64D0E0001601987
:1002B800D8A424D0310E6119D8A408D02750D8A4C6
:1002C80002D0010E01D0000E276EA3D6320E61199E
:1002D800D8A408D02450D8A402D0010E01D0000E12
:1002E800246E97D6330E6119D8A493D62650D8A475
:1002F80002D0010E01D0000E266E8BD64E0E60196C
:10030800D8A408D01A50D8A402D0010E01D0000EEB
:100318001A6E7FD6570E6019D8A403D089EC04F062
:1003280078D6520E00016019D8A403D0BCEC04F0B2
:1003380070D6450E00016019D8A46BD6440E611919
:10034800D8A426D0010E1D6ED00E6225836F846B53
:10035800FF0E8423000E866F640E856F2EEC04F06A
:1003680000016451896F8A6B8351892784518A23DC
:10037800D00E6325836F846BFF0E8423000E866F77
:100388000A0E856F2EEC04F029D0010E236E41D69B
:10039800490E6119D8A43DD6000E1D6ED00E6225F7
:1003A800836F846BFF0E8423000E866F640E856F47
:1003B8002EEC04F000016451896F8A6B8351892700
:1003C80084518A23D00E6325836F846BFF0E8423A8
:1003D800000E866F0A0E856F2EEC04F00001835123
:1003E800892784518A23D00E8925176EFF0E8A210A
:1003F800186ECBD7C2B20DD60B0E0001896F620EF4
:10040800E82EFED7892FFCD700F0C28202D606005C
:10041800FACF36F0FBCF37F0E9CF38F0EACF39F032
:10042800E1CF3AF0E2CF3BF0D9CF3CF0DACF3DF064
:10043800F3CF3EF0F4CF3FF0F6CF40F0F7CF41F0E6
:10044800F8CF42F0F5CF43F054C044F055C045F022
:1004580056C046F057C047F0F2A485D0F294000E7B
:10046800D76EFA0ED66E0D4A0E2A0001814B822BEA
:100478000B4A0C2A7F4B802B2750D8B43BD04C50CA
:100488000D1838E14D500E18D8A434D0000E0E6E59
:10049800000E0D6E80B603D0346A342A01D0346A57
:1004A80034463446344689503418F70B3418896E6C
:1004B800094A0A2AC80E09180A10D8A406D0000E3C
:1004C8000A6E000E096E034A042A50C034F051C067
:1004D80035F0D89034363536D89034363536D8900D
:1004E800343635360350341805E104503518D8B47D
:1004F80078EC04F02650D8B4CDD04A500B1803E15C
:100508004B500C18D8A4C6D0000E0C6E000E0B6E03
:1005180082B203D0346A342A01D0346A34468B500C
:100528003418FD0B34188B6E074A082A4EC02EF07B
:100538004FC02FF0000E316E010E306E55EC04F0F6
:1005480007502E1803E108502F18D8A4A3D025501F
:10055800D8A402D0010E01D0000E256E000E086E40
:10056800000E076E97D09EA04FD09E90D80ECF6EEB
:10057800F00ECE6E2450D8B40DD080BA03D0346AB1
:10058800342A01D0346A343A344689503418DF0B9F
:100598003418896E2650D8B40CD082B203D0346A8D
:1005A800342A01D0346A34468B503418FD0B341881
:1005B8008B6E5350D8B46ED02350D8B46BD081BC56
:1005C80003D0346A342A01D0346A343A3446344683
:1005D8008A503418BF0B34188A6E17C034F018C00C
:1005E80035F0D89034363536055034180AE10650BF
:1005F8003518D8A406D0000E236E000E066E000E25
:10060800056E054A062A46D09EAA1AD09E9A600E02
:100618001324D96E000E1420DA6EAECFDFFF134A12
:10062800142A0A0EAE18D8A435D060C0ADFF9EA813
:10063800FED7010E216E000E146E000E136E2AD026
:100648009EAC0AD09E9C0FC015F010C016F0C3CF08
:100658000FF0C4CF10F01ED0F0A00CD0F0902250B4
:10066800D8B403D078EC04F015D02550D8A410D015
:10067800010E0FD0F0A20ED0F0922250D8B403D0C1
:1006880078EC04F007D02550D8A402D0010E01D090
:10069800000E256E47C057F046C056F045C055F0CD
:1006A80044C054F043C0F5FF42C0F8FF41C0F7FF13
:1006B80040C0F6FF3FC0F4FF3EC0F3FF3DC0DAFF85
:1006C8003CC0D9FF3BC0E2FF3AC0E1FF39C0EAFFB6
:1006D80038C0E9FF37C0FBFF36C0FAFF549211005B
:1006E800000E806E000E896E000E816E000E8A6EFE
:1006F800000E826E000E8B6E0D0EC16E9280C2943B
:10070800C296C298C29AAC0EC06E9D8C9E9CC28046
:10071800929492969298929A94909492939E939C83
:1007280094949398939AD09EF28EF28CF28AF294D3
:10073800F184D58CD59AD596D550F80B0509D56E88
:10074800D59E000ED76E060ED66E9D809E909F8019
:10075800CD92CF0ECD16CD8093829384F086F0880B
:10076800F090F092F19AF198949C948EAC84B886AB
:10077800CF0EAF6EAB8EAC98AC8AAB88AC9CAB9C02
:100788009D8A9D98630ECB6ECF0EBD16FC0ECA16C1
:10079800CA84BD80BD82BD84BD861200720EF66E0D
:1007A800090EF76E000EF86E00EE8BF010EE06F0F4
:1007B8000900F5CFEEFFE550E150FAE15A0EF66E6A
:1007C800090EF76E000EF86E00EE48F010EE0CF011
:1007D8000900F5CFEEFFE550E150FAE100EE60F0D8
:1007E800230EEE6AE806FDE100EE01F0270EEE6A40
:1007F800E806FDE154905492000EF86E000109EFEE
:1008080000F0010E536E000E1D6E11D0000E4D6EDD
:10081800020E4C6E000E4B6E840E4A6E000E186E61
:10082800C80E03D0010E186E900E176E10D083C03C
:1008380085F084C086F000018651000AD8A407D04C
:100848008551190AD8B4E2D7380AD8B4EBD7010EC3
:10085800236E1200000183518503F3CF87F0F4CF94
:1008680088F083518603F350882784518503F35019
:10087800882787C083F088C084F0120028502A0295
:10088800F3CF2CF0F4CF2DF028502B02F3502D2667
:1008980029502A02F3502D262CC028F02DC029F00B
:1008A800120030C028F031C029F02EC02AF02FC025
:1008B8002BF042EC04F0D8902930326E28302E6E9E
:1008C80032C02FF01200CD80D59E000E266E26C0B5
:1008D80027F0000E226E010E536E010E1D6E010EE2
:1008E800236E010E1B6E1200CD80D59E000E266E63
:1008F80026C027F0000E226E010E536E010E1D6EEB
:10090800010E236E010E1B6E12001A50D8A402D0DD
:10091800010E01D0000E1A6ECD80D59E000E266EF7
:10092800010E246E010E196E1200010E256ECD9077
:10093800D58E000E526E010E226E010E276E010E2C
:10094800266E12000001836F9EA8FED783C0ADFFFC
:1009580012003200840002002224A00F0101D38873
:10096800D38AD38C030ED3121200010005000100B4
:04097800FF0012006A
:020000040020DA
:08000000FFFFFFFFFFFFFFFF00
:020000040030CA
:0E0000000009191EFF8180FF0FC00FE00F40A6
:00000001FF
