:0400000007EF00F016
:1000080053827FED01F00DEF03F0A1EC03F0AFECAC
:1000180002F044C0BEFF1CB002D0899401D089848C
:100028001BB002D0899801D0898822B002D08B9069
:1000380001D08B801AB002D08A9E01D08A8E17B068
:1000480002D08A9A01D08A8A1750D8A404D0000115
:10005800876B872B02D00001876B873B8A508719F3
:10006800EF0B87198A6E1E04D8A438D1000E1E6EB5
:10007800410E6019D8A4A6D0D00E6125816F826B7D
:10008800FF0E8223000E846F0A0E836F3AEC03F092
:1000980000016251876F886B8151872782518823BD
:1000A800D00E87257D6FFF0E88217E6FD00E6325C9
:1000B800816F826BFF0E8223270E846F100E836F71
:1000C8003AEC03F000016751876F886B81518727ED
:1000D80082518823D00E6425816F826BFF0E8223A4
:1000E800030E846FE80E836F3AEC03F00001815130
:1000F800872782518823D00E6525816F826BFF0E7A
:100108008223000E846F640E836F3AEC03F00001C3
:100118008151872782518823D00E6625816F826B93
:10012800FF0E8223000E846F0A0E836F3AEC03F0F1
:1001380000018151872782518823D00E87254E6E72
:10014800FF0E88214F6ED00E6825816F826BFF0EDF
:100158008223030E846FE80E836F3AEC03F00001EC
:100168006B51876F886B8151872782518823D00E06
:100178006925816F826BFF0E8223000E846F640EE7
:10018800836F3AEC03F0000181518727825188235D
:10019800D00E6A25816F826BFF0E8223000E846F5A
:1001A8000A0E836F3AEC03F00001815187278251D0
:1001B8008823D00E8725506EFF0E8821516E010EC0
:1001C800196E27D7420E6019D8A41BD0D00E61250E
:1001D800816F826BFF0E8223000E846F0A0E836F7D
:1001E8003AEC03F000016251876F886B81518727D1
:1001F80082518823D00E8725446EFF0E8821456ED4
:1002080008D7440E6019D8A425D05250D8B422D0AB
:10021800300E6119D8A404D0010E236E000E07D049
:10022800310E6119D8A405D0010E236E010E226E7D
:10023800F0D6320E6119D8B433D0330E6119D8A470
:10024800E8D62350D8A4E5D61950D8B4E2D681EC24
:1002580003F0DFD64D0E00016019D8A424D0310E6A
:100268006119D8A408D02450D8A402D0010E01D016
:10027800000E246ECED6320E6119D8A408D02150B3
:10028800D8A402D0010E01D0000E216EC2D6330EC2
:100298006119D8A4BED62350D8A402D0010E01D02B
:1002A800000E236EB6D64E0E6019D8A408D017508B
:1002B800D8A402D0010E01D0000E176EAAD6570E90
:1002C8006019D8A403D073EC03F0A3D6520E000132
:1002D8006019D8A49ED6A7EC03F09BD6C2B299D6D3
:1002E8000B0E0001876F620EE82EFED7872FFCD712
:1002F80000F0C2828ED60600FACF32F0FBCF33F080
:10030800E9CF34F0EACF35F0E1CF36F0E2CF37F07D
:10031800D9CF38F0DACF39F0F3CF3AF0F4CF3BF059
:10032800F6CF3CF0F7CF3DF0F8CF3EF0F5CF3FF0F9
:1003380053C040F054C041F055C042F056C043F09D
:10034800F2A477D0F294000ED76EFA0ED66E0F4A4A
:10035800102A0D4A0E2A0B4A0C2A094A0A2A245046
:10036800D8B42ED04C500F182BE14D501018D8A4EB
:1003780027D0000E106E000E0F6E80B603D0316AC3
:10038800312A01D0316A3146314631468950311817
:10039800F70B3118896E074A082AC80E0718081083
:1003A800D8A406D0000E086E000E076E014A022A75
:1003B8005050011805E151500218D8B48EEC03F0E2
:1003C8002350D8B4A2D048500B1803E149500C1858
:1003D800D8A49BD0000E0C6E000E0B6E82B203D018
:1003E800316A312A01D0316A31468B503118FD0B00
:1003F80031188B6E054A062A4EC02BF04FC02CF0E0
:10040800000E2E6E010E2D6E61EC03F005502B18B8
:100418007CE106502C18D8A478D02250D8A402D059
:10042800010E01D0000E226E000E066E000E056E43
:100438006CD09EA025D09E90D80ECF6EF00ECE6EBA
:100448002350D8B40CD082B203D0316A312A01D0FB
:10045800316A31468B503118FD0B31188B6E2150A3
:10046800D8B453D080BA03D0316A312A01D0316A66
:10047800313A314689503118DF0B3118896E45D031
:100488009EAA1AD09E9A600E1524D96E000E1620C8
:10049800DA6EAECFDFFF154A162A0A0EAE18D8A4B8
:1004A80034D060C0ADFF9EA8FED7010E1E6E000EB0
:1004B800166E000E156E29D09EAC06D09E9CC3CF3A
:1004C80011F0C4CF12F021D0F0A009D0F090205044
:1004D800D8A40BD02250D8A416D0010E15D0F0A263
:1004E80014D0F0922050D8B409D0000E246E000E1B
:1004F800216E000E236E000E1F6E07D02250D8A466
:1005080002D0010E01D0000E226E43C056F042C048
:1005180055F041C054F040C053F03FC0F5FF3EC015
:10052800F8FF3DC0F7FF3CC0F6FF3BC0F4FF3AC000
:10053800F3FF39C0DAFF38C0D9FF37C0E2FF36C051
:10054800E1FF35C0EAFF34C0E9FF33C0FBFF32C02A
:10055800FAFF53921100000E806E000E896E000E95
:10056800816E000E8A6E000E826E000E8B6E0D0E6E
:10057800C16E9280C294C296C298C29AAC0EC06EE6
:100588009D8C9E9CC280929492969298929A9490F6
:100598009492939E939C94949398939AD09EF28E5F
:1005A800F28CF28AF294F184D58CD59AD596D550EE
:1005B800F80B0509D56ED59E000ED76E060ED66EC1
:1005C8009D809E909F80CD92CF0ECD16CD80938238
:1005D8009384F086F088F090F092F19AF198949CC8
:1005E800948EAC84B886CF0EAF6EAB8EAC98AC8AC6
:1005F800AB88AC9CAB9C9D8A9D98630ECB6ECF0E4E
:10060800BD16FC0ECA16CA84BD80BD82BD84BD86D7
:100618001200520EF66E070EF76E000EF86E090005
:10062800F5CF89F00900F5CF8AF0320EF66E070E85
:10063800F76E000EF86E00EE44F010EE0FF00900B1
:10064800F5CFEEFFE550E150FAE100EE60F0210E43
:10065800EE6AE806FDE100EE01F0240EEE6AE80617
:10066800FDE153905392000109EF00F00001815120
:100678008303F3CF85F0F4CF86F081518403F350E0
:10068800862782518303F350862785C081F086C070
:1006980082F0120025502702F3CF29F0F4CF2AF078
:1006A80025502802F3502A2626502702F3502A26DE
:1006B80029C025F02AC026F012002DC025F02EC032
:1006C80026F02BC027F02CC028F04EEC03F0D89071
:1006D80026302F6E25302B6E2FC02CF012001750AD
:1006E800D8A402D0010E01D0000E176ECD80D59E81
:1006F800000E236E010E216E1200010E226ECD90A7
:10070800D58E000E526E010E206E010E246E010E63
:10071800236E1200CD80D59E000E236E23C024F0D8
:10072800000E206E010E186E1200320005008400C3
:09073800010002002224A00F01BF
:10074200D388D38AD38C030ED3121200FF00120077
:020752000100A4
:020000040020DA
:08000000FFFFFFFFFFFFFFFF00
:020000040030CA
:0E0000000009191EFF8180FF0FC00FE00F40A6
:00000001FF
