:0400000007EF00F016
:10000800358209ED00F0D6EF00F00600FACF21F0B6
:10001800FBCF22F0E9CF23F0EACF24F0E1CF25F09F
:10002800E2CF26F0D9CF27F0DACF28F0F3CF29F0A6
:10003800F4CF2AF0F6CF2BF0F7CF2CF0F8CF2DF035
:10004800F5CF2EF035C02FF036C030F037C031F084
:1000580038C032F0F2A413D0F294194A1A2A80B0A8
:1000680003D0206A202A01D0206A89502018FE0B6C
:100078002018896E000ED76E320ED66E1BD09EAA3F
:1000880019D09E9A010E1B24D96E000E1C20DA6E20
:10009800AECFDFFF1B4A1C2A0D0EAE18D8A40AD01B
:1000A80001C0ADFF9EA8FED7010E1F6E000E1C6E8C
:1000B800000E1B6E32C038F031C037F030C036F059
:1000C8002FC035F02EC0F5FF2DC0F8FF2CC0F7FF6C
:1000D8002BC0F6FF2AC0F4FF29C0F3FF28C0DAFFBF
:1000E80027C0D9FF26C0E2FF25C0E1FF24C0EAFFF0
:1000F80023C0E9FF22C0FBFF21C0FAFF359211009F
:10010800000E806E000E896E000E816E000E8A6EE3
:10011800000E826E000E8B6E0F0EC16E9290929240
:10012800D09EF28EF28CF28AF294F184D58CD59A14
:10013800D596D550F80B0509D56E000ED76E060E6C
:10014800D66E949C948EAC84B886CF0EAF6EAB8E70
:10015800AC98AC8AAB88AC9CAB9C9D8A9D981200ED
:10016800EFEC00F084EC00F01DB002D0899201D0D1
:1001780089821F04D8A4F8D7000E1F6E05D0010E7F
:1001880001D0000E1D6EF0D7010E1B24D96E000E93
:100198001C20DA6EDF50310AD8B4F1D7030AD8B47C
:1001A800F0D7E2D7EA0EF66E010EF76E000EF86E83
:1001B8000900F5CF33F00900F5CF34F000EE01F077
:1001C8001F0EEE6AE806FDE135903592000EF86ED6
:1001D8000001B4EF00F0D388D38AD38C030ED31276
:0401E8001200010000
:020000040020DA
:08000000FFFFFFFFFFFFFFFF00
:020000040030CA
:0E0000000009191EFF8180FF0FC00FE00F40A6
:00000001FF
