:0400000007EF00F016
:1000080049821EED01F0FCEF01F026EC02F0AAECAB
:1000180001F015C0BEFF29B002D0899201D08982B3
:100028002B04D8A403D1000E2B6E420E0118D8A4BD
:1000380021D02950D8A402D0010E01D0000E296E7B
:10004800D00E02243F6E406AFF0E4022000E426E20
:100058000A0E416E13EC02F00350456E466A3F509B
:10006800452640504622D00E4524156EFF0E4620E8
:10007800166ECFD7410E0118D8A4CBD7D00E0224C4
:100088003F6E406AFF0E4022000E426E0A0E416E1D
:1000980013EC02F00350456E466A3F504526405027
:1000A8004622D00E45241F6EFF0E4620206ED00E2D
:1000B80004243F6E406AFF0E4022030E426EE80E93
:1000C800416E13EC02F00750456E466A3F504526D4
:1000D80040504622D00E05243F6E406AFF0E402253
:1000E800000E426E640E416E13EC02F03F5045263E
:1000F80040504622D00E06243F6E406AFF0E402232
:10010800000E426E0A0E416E13EC02F03F50452677
:1001180040504622D00E45241D6EFF0E46201E6E0E
:10012800D00E08243F6E406AFF0E4022270E426E12
:10013800100E416E13EC02F00C50456E466A3F50AB
:10014800452640504622D00E09243F6E406AFF0ED5
:100158004022030E426EE80E416E13EC02F03F504F
:10016800452640504622D00E0A243F6E406AFF0EB4
:100178004022000E426E640E416E13EC02F03F50B6
:10018800452640504622D00E0B243F6E406AFF0E93
:100198004022000E426E0A0E416E13EC02F03F50F0
:1001A800452640504622D00E45241B6EFF0E4620A1
:1001B8001C6ED00E0D243F6E406AFF0E4022030EC7
:1001C800426EE80E416E13EC02F01050456E466A1E
:1001D8003F50452640504622D00E0E243F6E406ABE
:1001E800FF0E4022000E426E640E416E13EC02F0C8
:1001F8003F50452640504622D00E0F243F6E406A9D
:10020800FF0E4022000E426E0A0E416E13EC02F001
:100218003F50452640504622D00E4524196EFF0E09
:1002280046201A6E10C017F0186AF3D6C2B2F1D67B
:10023800C282EFD60600FACF2DF0FBCF2EF0E9CF21
:100248002FF0EACF30F0E1CF31F0E2CF32F0D9CF62
:1002580033F0DACF34F0F3CF35F0F4CF36F0F6CF11
:1002680037F0F7CF38F0F8CF39F0F5CF3AF049C08A
:100278003BF04AC03CF04BC03DF04CC03EF0F2A40D
:1002880015D0F294254A262A80B403D02C6A2C2A49
:1002980001D02C6A2C462C4689502C18FB0B2C18A4
:1002A800896E000ED76E320ED66E2AD09EAA1AD04C
:1002B8009E9A010E2724D96E000E2820DA6EAECF42
:1002C800DFFF274A282A0D0EAE18D8A419D001C07E
:1002D800ADFF9EA8FED7010E2B6E000E286E000EF5
:1002E800276E0ED09EAC06D09E9CC3CF23F0C4CF01
:1002F80024F006D0F0A002D0F09002D0F0B2F09234
:100308003EC04CF03DC04BF03CC04AF03BC049F009
:100318003AC0F5FF39C0F8FF38C0F7FF37C0F6FF1D
:1003280036C0F4FF35C0F3FF34C0DAFF33C0D9FF5D
:1003380032C0E2FF31C0E1FF30C0EAFF2FC0E9FF61
:100348002EC0FBFF2DC0FAFF49921100000E806EEF
:10035800000E896E000E816E000E8A6E000E826E8F
:10036800000E8B6E0E0EC16E9280C294C296C29819
:10037800C29AAC0EC06E9D8C9E9CC2809292929442
:100388009296929894909492939E939C9494D09ED3
:10039800F28EF28CF28AF294F184D58CD59AD596A5
:1003A800D550F80B0509D56E000ED76E060ED66E21
:1003B800F086F088F090F092949C948EAC84B88685
:1003C800CF0EAF6EAB8EAC98AC8AAB88AC9CAB9CB6
:1003D8009D8A9D98630ECB6E320EBE6ECF0EBD16F3
:1003E800FC0ECA16CA84BD80BD82BD84BD861200BB
:1003F800580EF66E040EF76E000EF86E0900F5CF73
:1004080047F00900F5CF48F000EE01F02B0EEE6A38
:10041800E806FDE149904992000109EF00F03F50DC
:100428004102F3CF43F0F4CF44F03F504202F3507F
:10043800442640504102F350442643C03FF044C094
:1004480040F01200D388D38AD38C030ED312120043
:020458000100A1
:020000040020DA
:08000000FFFFFFFFFFFFFFFF00
:020000040030CA
:0E0000000009191EFF8180FF0FC00FE00F40A6
:00000001FF
