:0400000007EF00F016
:10000800538257ED01F0C3EF02F0F2EC02F072EC0C
:1000180002F04FC0BEFF35B002D0899401D0898468
:1000280034B002D0899801D0898833B002D08B903F
:1000380001D08B8032B002D08A9E01D08A8E315096
:10004800D8B404D0430EAD6E9EA8FED73B04D8A406
:1000580026D1000E3B6E420E0118D8A423D035508D
:10006800D8A402D0010E01D0000E356ED00E0224A5
:100078000001606F616BFF0E6123000E636F0A0E53
:10008800626FDEEC02F003500001666F676B60512F
:10009800662761516723D00E66254F6EFF0E6721D4
:1000A800506EB7D7410E0118D8A4E6D0D00E02245E
:1000B8000001606F616BFF0E6123000E636F0A0E13
:1000C800626FDEEC02F003500001666F676B6051EF
:1000D800662761516723D00E66251D6EFF0E6721C6
:1000E8001E6ED00E0424606F616BFF0E6123030E39
:1000F800636FE80E626FDEEC02F007500001666F76
:10010800676B6051662761516723D00E0524606FC5
:10011800616BFF0E6123000E636F640E626FDEEC8D
:1001280002F000016051662761516723D00E062452
:10013800606F616BFF0E6123000E636F0A0E626FC2
:10014800DEEC02F000016051662761516723D00E92
:1001580066251B6EFF0E67211C6ED00E0824606F8B
:10016800616BFF0E6123270E636F100E626FDEEC6A
:1001780002F00C500001666F676B60516627615191
:100188006723D00E0924606F616BFF0E6123030E95
:10019800636FE80E626FDEEC02F0000160516627C3
:1001A80061516723D00E0A24606F616BFF0E6123D3
:1001B800000E636F640E626FDEEC02F000016051A6
:1001C800662761516723D00E0B24606F616BFF0EA9
:1001D8006123000E636F0A0E626FDEEC02F000010D
:1001E8006051662761516723D00E6625196EFF0E90
:1001F80067211A6ED00E0D24606F616BFF0E6123AC
:10020800030E636FE80E626FDEEC02F0105000011F
:10021800666F676B6051662761516723D00E0E24A5
:10022800606F616BFF0E6123000E636F640E626F77
:10023800DEEC02F000016051662761516723D00EA1
:100248000F24606F616BFF0E6123000E636F0A0E4F
:10025800626FDEEC02F0000160516627615167238E
:10026800D00E6625176EFF0E6721186E10C015F0A8
:10027800166A010E316ECDD6440E0118D8A4C9D61F
:10028800300E0218D8A402D0000E05D0310E021884
:10029800D8A4BFD6010E336E010E386EBAD6C2B2DC
:1002A800B8D6C282B6D60600FACF3DF0FBCF3EF0F4
:1002B800E9CF3FF0EACF40F0E1CF41F0E2CF42F0A2
:1002C800D9CF43F0DACF44F0F3CF45F0F4CF46F07E
:1002D800F6CF47F0F7CF48F0F8CF49F0F5CF4AF01E
:1002E80053C04BF054C04CF055C04DF056C04EF0C2
:1002F800F2A482D0F2942D4A2E2A80B603D03C6A0A
:100308003C2A01D03C6A3C463C463C4689503C1855
:10031800F70B3C18896E000ED76E320ED66E274A40
:10032800282A254A262A234A242A214A222A3A50B8
:10033800D8B416D0050E27182810D8A411D080BA22
:1003480003D03C6A3C2A01D03C6A3C3A3C4689507E
:100358003C18DF0B3C18896E000E266E000E256EC9
:100368003950D8B416D0050E25182610D8A411D0A7
:1003780080BA03D03C6A3C2A01D03C6A3C3A3C46ED
:1003880089503C18DF0B3C18896E000E266E000E53
:10039800256E3850D8B415D0050E23182410D8A4CB
:1003A80010D082B203D03C6A3C2A01D03C6A3C4659
:1003B8008B503C18FD0B3C188B6E000E246E000E03
:1003C800236E3750D8B464D0050E21182210D8A453
:1003D8005FD081BC03D03C6A3C2A01D03C6A3C3ADD
:1003E8003C463C468A503C18BF0B3C188A6E000EAF
:1003F800226E000E216E4CD09EAA1AD09E9A010E33
:100408002F24D96E000E3020DA6EAECFDFFF2F4AD0
:10041800302A0A0EAE18D8A43BD001C0ADFF9EA862
:10042800FED7010E3B6E000E306E000E2F6E30D0E0
:100438009EAC28D09E9CC230E8320F0B0009D8A48D
:1004480005D0C3CF2BF0C4CF2CF00AD0C230E8328D
:100458000F0BE806D8A404D0C3CF29F0C4CF2AF0E4
:10046800C230E8320F0B0009D8A403D03C6A3C2AFA
:1004780001D03C6A3C463C46C2503C18C30B3C1871
:10048800C26E06D0F0A002D0F09002D0F0B2F09286
:100498004EC056F04DC055F04CC054F04BC053F010
:1004A8004AC0F5FF49C0F8FF48C0F7FF47C0F6FF4C
:1004B80046C0F4FF45C0F3FF44C0DAFF43C0D9FF8C
:1004C80042C0E2FF41C0E1FF40C0EAFF3FC0E9FF90
:1004D8003EC0FBFF3DC0FAFF53921100000E806E34
:1004E800000E896E000E816E000E8A6E000E826EFE
:1004F800000E8B6E0D0EC16E92809282C294C296CF
:10050800C298C29AAC0EC06E9D8C9E9CC28092947A
:1005180092969298929A94909492939E939C949483
:10052800D09EF28EF28CF28AF294F184D58CD59A10
:10053800D596D550F80B0509D56E000ED76E060E68
:10054800D66EF086F088F090F092949C948EAC84ED
:10055800B886CF0EAF6EAB8EAC98AC8AAB88AC9C2D
:10056800AB9C9D8A9D98630ECB6ECF0EBD16FC0E7C
:10057800CA16CA84BD80BD82BD84BD861200F00E35
:10058800F66E050EF76E000EF86E00EE4FF010EEE8
:1005980004F00900F5CFEEFFE550E150FAE100EE76
:1005A80001F03B0EEE6AE806FDE15390539200011C
:1005B80009EF00F0000160516203F3CF64F0F4CF5B
:1005C80065F060516303F350652761516203F3508E
:1005D800652764C060F065C061F01200D388D38AD3
:0C05E800D38C030ED3121200320001006D
:020000040020DA
:08000000FFFFFFFFFFFFFFFF00
:020000040030CA
:0E0000000009191EFF8180FF0FC00FE00F40A6
:00000001FF
