:0400000007EF00F016
:1000080047820BED01F0DBEF01F005EC02F097EC15
:1000180001F027B002D0899201D089822904D8A49E
:10002800F2D0000E296E420E0118D8A402D0010E9B
:10003800E8D0410E0118D8A4ECD7D00E02243D6EAA
:100048003E6AFF0E3E22000E406E0A0E3F6EF2EC34
:1000580001F00350436E446A3D5043263E5044220B
:10006800D00E43241D6EFF0E44201E6ED00E0424B5
:100078003D6E3E6AFF0E3E22030E406EE80E3F6E56
:10008800F2EC01F00750436E446A3D5043263E505F
:100098004422D00E05243D6E3E6AFF0E3E22000E1D
:1000A800406E640E3F6EF2EC01F03D5043263E5028
:1000B8004422D00E06243D6E3E6AFF0E3E22000EFC
:1000C800406E0A0E3F6EF2EC01F03D5043263E5062
:1000D8004422D00E43241B6EFF0E44201C6ED00E0B
:1000E80008243D6E3E6AFF0E3E22270E406E100E1B
:1000F8003F6EF2EC01F00C50436E446A3D504326CB
:100108003E504422D00E09243D6E3E6AFF0E3E2228
:10011800030E406EE80E3F6EF2EC01F03D504326B0
:100128003E504422D00E0A243D6E3E6AFF0E3E2207
:10013800000E406E640E3F6EF2EC01F03D50432617
:100148003E504422D00E0B243D6E3E6AFF0E3E22E6
:10015800000E406E0A0E3F6EF2EC01F03D50432651
:100168003E504422D00E4324196EFF0E44201A6ECE
:10017800D00E0D243D6E3E6AFF0E3E22030E406EE9
:10018800E80E3F6EF2EC01F01050436E446A3D50A9
:1001980043263E504422D00E0E243D6E3E6AFF0E8A
:1001A8003E22000E406E640E3F6EF2EC01F03D50B0
:1001B80043263E504422D00E0F243D6E3E6AFF0E69
:1001C8003E22000E406E0A0E3F6EF2EC01F03D50EA
:1001D80043263E504422D00E4324176EFF0E44207F
:1001E800186E10C015F0166A140E1D181E10D8A42B
:1001F80010D7D00E1B1803E1070E1C18D8A409D776
:10020800000E276E06D7C2B204D7C28202D70600F4
:10021800FACF2BF0FBCF2CF0E9CF2DF0EACF2EF060
:10022800E1CF2FF0E2CF30F0D9CF31F0DACF32F092
:10023800F3CF33F0F4CF34F0F6CF35F0F7CF36F014
:10024800F8CF37F0F5CF38F047C039F048C03AF06A
:1002580049C03BF04AC03CF0F2A415D0F294234ABE
:10026800242A80B403D02A6A2A2A01D02A6A2A4674
:100278002A4689502A18FB0B2A18896E000ED76E59
:10028800320ED66E2AD09EAA1AD09E9A010E252426
:10029800D96E000E2620DA6EAECFDFFF254A262A59
:1002A8000D0EAE18D8A419D001C0ADFF9EA8FED778
:1002B800010E296E000E266E000E256E0ED09EAC25
:1002C80006D09E9CC3CF21F0C4CF22F006D0F0A068
:1002D80002D0F09002D0F0B2F0923CC04AF03BC09D
:1002E80049F03AC048F039C047F038C0F5FF37C088
:1002F800F8FF36C0F7FF35C0F6FF34C0F4FF33C04F
:10030800F3FF32C0DAFF31C0D9FF30C0E2FF2FC09F
:10031800E1FF2EC0EAFF2DC0E9FF2CC0FBFF2BC078
:10032800FAFF47921100000E806E000E896E000ED3
:10033800816E000E8A6E000E826E000E8B6E0E0E9F
:10034800C16E9280C294C296C298C29AAC0EC06E18
:100358009D8C9E9CC2809292929492969298949030
:100368009492939E939CD09EF28EF28CF28AF29491
:10037800F184D58CD59AD596D550F80B0509D56E4C
:10038800000ED76E060ED66EF086F088F090F092CA
:10039800949C948EAC84B886CF0EAF6EAB8EAC981E
:1003A800AC8AAB88AC9CAB9C9D8A9D981200160EBB
:1003B800F66E040EF76E000EF86E0900F5CF45F0E4
:1003C8000900F5CF46F000EE01F0290EEE6AE806C6
:1003D800FDE147904792000109EF00F03D503F02D0
:1003E800F3CF41F0F4CF42F03D504002F3504226A3
:1003F8003E503F02F350422641C03DF042C03EF01D
:100408001200D388D38AD38C030ED31212000100B2
:020000040020DA
:08000000FFFFFFFFFFFFFFFF00
:020000040030CA
:0E0000000009191EFF8180FF0FC00FE00F40A6
:00000001FF
