:0400000007EF00F016
:100008004B8277ED02F030EF04F057EC05F0D2ECBC
:1000180003F099C0BEFF18B002D0899401D089843A
:1000280017B002D0899801D089881EB002D08B9071
:1000380001D08B8016B002D08A9E01D08A8E13B070
:1000480002D08A9A01D08A8A1350D8A404D0000119
:10005800936B932B02D00001936B933B8A509319B7
:10006800EF0B93198A6E1A04D8A4A0D1000E1A6E49
:10007800410E6019D8A4ACD0D00E6125876F886B6B
:10008800FF0E8823000E8A6F0A0E896FD8EC04F0E1
:1000980000016251936F946B875193278851942381
:1000A800D00E9325766FFF0E9421776FD00E6325BF
:1000B800876F886BFF0E8823270E8A6F100E896F53
:1000C800D8EC04F000016751936F946B8751932724
:1000D80088519423D00E6425876F886BFF0E882380
:1000E800030E8A6FE80E896FD8EC04F0000187517F
:1000F800932788519423D00E6525876F886BFF0E50
:100108008823000E8A6F640E896FD8EC04F0000112
:100118008751932788519423D00E6625876F886B63
:10012800FF0E8823000E8A6F0A0E896FD8EC04F040
:1001380000018751932788519423D00E9325456E4B
:10014800FF0E9421466ED00E6825876F886BFF0ED0
:100158008823030E8A6FE80E896FD8EC04F000013B
:100168006B51936F946B8751932788519423D00ECA
:100178006925876F886BFF0E8823000E8A6F640ECF
:10018800896FD8EC04F00001875193278851942394
:10019800D00E6A25876F886BFF0E8823000E8A6F42
:1001A8000A0E896FD8EC04F0000187519327885113
:1001B8009423D00E9325476EFF0E9421486E010EAE
:1001C800156E76C087F077C088F08DEC04F021D7E3
:1001D800420E00016019D8A41BD0D00E6125876F8C
:1001E800886BFF0E8823000E8A6F0A0E896FD8EC81
:1001F80004F000016251936F946B875193278851E3
:100208009423D00E9325996FFF0E94219A6F01D7EE
:10021800440E6019D8A425D04950D8B422D0300E45
:100228006119D8A404D0010E1F6E000E07D0310E3C
:100238006119D8A405D0010E1F6E010E1E6EE9D6F5
:10024800320E6119D8B433D0330E6119D8A4E1D66F
:100258001F50D8A4DED61550D8B4DBD643EC05F031
:10026800D8D64D0E00016019D8A424D0310E6119DA
:10027800D8A408D02050D8A402D0010E01D0000E76
:10028800206EC7D6320E6119D8A408D01D50D8A444
:1002980002D0010E01D0000E1D6EBBD6330E6119BF
:1002A800D8A4B7D61F50D8A402D0010E01D0000E92
:1002B8001F6EAFD64E0E6019D8A408D01350D8A41C
:1002C80002D0010E01D0000E136EA3D6570E60198E
:1002D800D8A403D035EC05F09CD6520E0001601965
:1002E800D8A403D066EC05F094D6450E0001601939
:1002F800D8A48FD6440E6119D8A426D0010E166E44
:10030800D00E6225876F886BFF0E8823000E8A6FD8
:10031800640E896FD8EC04F000016451936F946BFC
:100328008751932788519423D00E6325876F886B54
:10033800FF0E8823000E8A6F0A0E896FD8EC04F02E
:1003480029D0010E1C6E65D6490E6119D8A461D654
:10035800000E166ED00E6225876F886BFF0E8823FD
:10036800000E8A6F640E896FD8EC04F000016451A6
:10037800936F946B8751932788519423D00E6325EC
:10038800876F886BFF0E8823000E8A6F0A0E896FAD
:10039800D8EC04F000018751932788519423D00E9C
:1003A8009325116EFF0E9421126ECBD7C2B231D6AF
:1003B8000B0E0001936F620EE82EFED7932FFCD729
:1003C80000F0C282410E0001806F0DC08CF00EC09B
:1003D8008DF0030E8F6FE80E8E6F63EC04F0000152
:1003E8008C51300F816F030E8A6FE80E896F0DC034
:1003F80087F00EC088F0B6EC04F087C08CF088C097
:100408008DF0000E00018F6F640E8E6F63EC04F0A8
:1004180000018C51300F826F030E8A6FE80E896FCE
:100428000DC087F00EC088F0B6EC04F087C097F0D6
:1004380088C098F0000E00018A6F640E896F97C01B
:1004480087F098C088F0B6EC04F087C08CF088C0BC
:100458008DF0000E00018F6F0A0E8E6F63EC04F0B2
:1004680000018C51300F836F030E8A6FE80E896F7D
:100478000DC087F00EC088F0B6EC04F087C097F086
:1004880088C098F0000E00018F6F0A0E8E6F000E64
:100498008A6F640E896F97C087F098C088F0B6ECB1
:1004A80004F087C08CF088C08DF063EC04F08CC039
:1004B80095F08DC096F095C087F096C088F0000E34
:1004C80000018A6F0A0E896FB6EC04F000018751AB
:1004D800300F846F0A0E856F800E886F000E896F4B
:1004E800ECEC04F096D50600FACF2FF0FBCF30F0F5
:1004F800E9CF31F0EACF32F0E1CF33F0E2CF34F098
:10050800D9CF35F0DACF36F0F3CF37F0F4CF38F073
:10051800F6CF39F0F7CF3AF0F8CF3BF0F5CF3CF013
:100528004BC03DF04CC03EF04DC03FF04EC040F0D7
:10053800F2A478D0F294000ED76EFA0ED66E0B4A5B
:100548000C2A00017C4B7D2B094A0A2A7A4B7B2B0B
:100558002050D8B42ED043500B182BE144500C181F
:10056800D8A427D0000E0C6E000E0B6E80B603D0F8
:100578002D6A2D2A01D02D6A2D462D462D468950EB
:100588002D18F70B2D18896E074A082AC80E071868
:100598000810D8A406D0000E086E000E076E014A97
:1005A800022A4750011805E148500218D8B424EC33
:1005B80005F01F50D8B4CCD04150091803E142507F
:1005C8000A18D8A4C5D0000E0A6E000E096E82B2B1
:1005D80003D02D6A2D2A01D02D6A2D468B502D1857
:1005E800FD0B2D188B6E054A062A45C027F046C01C
:1005F80028F0000E2A6E010E296E12EC05F0055047
:10060800271803E106502818D8A4A2D01E50D8A451
:1006180002D0010E01D0000E1E6E000E066E000EF6
:10062800056E96D09EA04FD09E90D80ECF6EF00E3D
:10063800CE6E1D50D8B40DD080BA03D02D6A2D2AA5
:1006480001D02D6A2D3A2D4689502D18DF0B2D1813
:10065800896E1F50D8B40CD082B203D02D6A2D2ACF
:1006680001D02D6A2D468B502D18FD0B2D188B6E41
:100678004A50D8B46DD01C50D8B46AD081BC03D0CD
:100688002D6A2D2A01D02D6A2D3A2D462D468A50E5
:100698002D18BF0B2D188A6E11C02DF012C02EF028
:1006A800D8902D362E3603502D180AE104502E18F6
:1006B800D8A406D0000E1C6E000E046E000E036E49
:1006C800034A042A45D09EAA1AD09E9A600E0F2487
:1006D800D96E000E1020DA6EAECFDFFF0F4A102A57
:1006E8000A0EAE18D8A434D060C0ADFF9EA8FED7BD
:1006F800010E1A6E000E106E000E0F6E29D09EAC01
:1007080006D09E9CC3CF0DF0C4CF0EF021D0F0A030
:1007180009D0F0901B50D8A40BD01E50D8A416D0E6
:10072800010E15D0F0A214D0F0921B50D8B409D005
:10073800000E206E000E1D6E000E1F6E000E4A6E1B
:1007480007D01E50D8A402D0010E01D0000E1E6E94
:1007580040C04EF03FC04DF03EC04CF03DC04BF0A5
:100768003CC0F5FF3BC0F8FF3AC0F7FF39C0F6FFC1
:1007780038C0F4FF37C0F3FF36C0DAFF35C0D9FF01
:1007880034C0E2FF33C0E1FF32C0EAFF31C0E9FF05
:1007980030C0FBFF2FC0FAFF4B921100000E806E95
:1007A800000E896E000E816E000E8A6E000E826E3B
:1007B800000E8B6E0D0EC16E9280C294C296C298C6
:1007C800C29AAC0EC06E9D8C9E9CC28092949296EA
:1007D8009298929A94909492939E939C94949398BE
:1007E800939AD09EF28EF28CF28AF294F184D58C90
:1007F800D59AD596D550F80B0509D56ED59E000E1D
:10080800D76E060ED66E9D809E909F80CD92CF0E9D
:10081800CD16CD8093829384F086F088F090F09284
:10082800F19AF198949C948EAC84B886CF0EAF6EF2
:10083800AB8EAC98AC8AAB88AC9CAB9C9D8A9D98DF
:10084800630ECB6ECF0EBD16FC0ECA16CA84BD80D1
:10085800BD82BD84BD861200C40EF66E0A0EF76E08
:10086800000EF86E00EE99F010EE08F00900F5CFD2
:10087800EEFFE550E150FAE1BA0EF66E0A0EF76E99
:10088800000EF86E00EE41F010EE0AF00900F5CF08
:10089800EEFFE550E150FAE100EE60F0270EEE6A57
:1008A800E806FDE100EE01F0200EEE6AE806FDE143
:1008B8004B904B92000EF86E000109EF00F0000E0D
:1008C8000001926F000E916F8E518F11D8B41CD019
:1008D800010E906F04D0D8908E378F37902B8FAF42
:1008E800FAD7D890913792378E518C5D8F518D59A8
:1008F800D8A005D08E518C5F8F518D5B9181D89097
:100908008F338E33902FEDD791C08CF092C08DF03D
:100918001200010E4A6E000E166E11D0000E446EC3
:10092800020E436E000E426E840E416E000E126E71
:10093800C80E03D0010E126E900E116E10D087C033
:1009480089F088C08AF000018A51000AD8A407D02B
:100958008951190AD8B4E2D7380AD8B4EBD7010EAE
:100968001C6E1200000189518A11D8B418D0010EEA
:100978008B6F04D0D89089378A378B2B8AAFFAD7F8
:100988008951875D8A518859D8A004D08951875FD9
:100998008A51885BD8908A3389338B2FF1D787C0E7
:1009A80087F088C088F01200000187518903F3CFCF
:1009B8008BF0F4CF8CF087518A03F3508C27885141
:1009C8008903F3508C278BC087F08CC088F0120005
:1009D8000AD088C0D9FF89C0DAFFDF5050EC05F093
:1009E8000001884B892B88C0D9FF89C0DAFFDF5006
:1009F800D8B41200EED721502302F3CF25F0F4CF5C
:100A080026F021502402F350262622502302F350C8
:100A1800262625C021F026C022F0120029C021F088
:100A28002AC022F027C023F028C024F0FFEC04F0ED
:100A3800D89022302B6E2130276E2BC028F0120060
:100A4800CD80D59E000E1F6E1FC020F0000E1B6EBD
:100A5800010E4A6E010E166E010E1C6E010E146E0A
:100A680012001350D8A402D0010E01D0000E136E4C
:100A7800CD80D59E000E1F6E010E1D6E1200010E58
:100A88001E6ECD90D58E000E496E010E1B6E010EA6
:100A9800206E010E1F6E12000001876F9EA8FED700
:100AA80087C0ADFF1200D388D38AD38C030ED3122C
:100AB8001200840002002224A00F0101320001006C
:080AC80005000100FF0012000F
:020000040020DA
:08000000FFFFFFFFFFFFFFFF00
:020000040030CA
:0E0000000009191EFF8180FF0FC00FE00F40A6
:00000001FF
