:0400000007EF00F016
:100008004C821AED02F0C6EF03F01BEC04F026EC6C
:1000180003F0010E4B6E010E4A6E010E496E3DC093
:10002800BEFF20B002D0899401D089841FB002D0CD
:10003800899801D0898823B002D08B9001D08B8019
:100048001EB002D08A9E01D08A8E2204D8A443D141
:10005800000E226E420E00016019D8A41BD0D00EEB
:100068006125746F756BFF0E7523000E776F0A0E8E
:10007800766FE7EC03F000016251806F816B745179
:10008800802775518123D00E80253D6EFF0E81217A
:100098003E6EBFD7410E6019D8A4E5D0D00E6125B9
:1000A800746F756BFF0E7523000E776F0A0E766FEF
:1000B800E7EC03F000016251806F816B7451802777
:1000C80075518123D00E8025096EFF0E81210A6E9D
:1000D800D00E6325746F756BFF0E7523030E776F53
:1000E800E80E766FE7EC03F000016651806F816BD4
:1000F8007451802775518123D00E6425746F756BF8
:10010800FF0E7523000E776F640E766FE7EC03F031
:1001180000017451802775518123D00E6525746FB5
:10012800756BFF0E7523000E776F0A0E766FE7EC7E
:1001380003F000017451802775518123D00E80256A
:10014800076EFF0E8121086ED00E6725746F756BE0
:10015800FF0E7523270E776F100E766FE7EC03F00E
:1001680000016B51806F816B745180277551812319
:10017800D00E6825746F756BFF0E7523030E776FAD
:10018800E80E766FE7EC03F0000174518027755193
:100198008123D00E6925746F756BFF0E7523000ED1
:1001A800776F640E766FE7EC03F0000174518027D7
:1001B80075518123D00E6A25746F756BFF0E7523F8
:1001C800000E776F0A0E766FE7EC03F000017451AA
:1001D800802775518123D00E8025056EFF0E812161
:1001E800066ED00E6C25746F756BFF0E7523030EAB
:1001F800776FE80E766FE7EC03F000016F51806FC0
:10020800816B7451802775518123D00E6D25746FD1
:10021800756BFF0E7523000E776F640E766FE7EC33
:1002280003F000017451802775518123D00E6E258B
:10023800746F756BFF0E7523000E776F0A0E766F5D
:10024800E7EC03F000017451802775518123D00E2B
:100258008025036EFF0E8121046E6FC001F0026AD3
:10026800010E1D6ED6D6440E6019D8A418D0300ED3
:100278006119D8A404D0010E246E000E07D0310EE7
:100288006119D8A405D0010E246E010E236EC1D6C3
:10029800320E6119D8A4BDD6000E246EBAD6450E0A
:1002A8006019D8A4B6D6300E6119D8A408D0495020
:1002B800D8A402D0010E01D0000E496EAAD6310E84
:1002C8006119D8A4A6D61E50D8A402D0010E01D018
:1002D800000E1E6E9ED6C2B29CD61A0E0001806F0A
:1002E800F80EE82EFED7802FFCD700F0C230E83297
:1002F8000F0B0009D8A404D00001806B802B02D01A
:100308000001806B80478047C2508019C30B801959
:10031800C26EC28217C079F018C07AF0030E7C6FE3
:10032800E80E7B6F7AEC03F000017951300F256EEF
:10033800030E776FE80E766F17C074F018C075F06B
:10034800A4EC03F074C079F075C07AF0000E0001D7
:100358007C6F640E7B6F7AEC03F000017951300FEB
:10036800266E030E776FE80E766F17C074F018C00C
:1003780075F0A4EC03F074C084F075C085F0000E2D
:100388000001776F640E766F84C074F085C075F0D5
:10039800A4EC03F074C079F075C07AF0000E000187
:1003A8007C6F0A0E7B6F7AEC03F000017951300FF5
:1003B800276E030E776FE80E766F17C074F018C0BB
:1003C80075F0A4EC03F074C084F075C085F0000EDD
:1003D80000017C6F0A0E7B6F000E776F640E766FDC
:1003E80084C074F085C075F0A4EC03F074C079F093
:1003F80075C07AF07AEC03F079C082F07AC083F0A5
:1004080082C074F083C075F0000E0001776F0A0E89
:10041800766FA4EC03F000017451300F286E250E9E
:10042800756F000E766FFBEC03F0F3D50600FACF7C
:100438002BF0FBCF2CF0E9CF2DF0EACF2EF0E1CF57
:100448002FF0E2CF30F0D9CF31F0DACF32F0F3CF5E
:1004580033F0F4CF34F0F6CF35F0F7CF36F0F8CFED
:1004680037F0F5CF38F04CC039F04DC03AF04EC0F7
:100478003BF04FC03CF0F2A47BD0F294000ED76E54
:10048800FA0ED66E134A142A114A122A0F4A102A53
:100498000D4A0E2A4B50D8B419D04750131816E1FC
:1004A80048501418D8A412D080B603D02A6A2A2A31
:1004B80001D02A6A2A462A462A4689502A18F70B62
:1004C8002A18896E000E146E000E136E4A50D8B4A6
:1004D80018D04550111815E146501218D8A411D05B
:1004E80080BA03D02A6A2A2A01D02A6A2A3A2A46D6
:1004F80089502A18DF0B2A18896E000E126E000E1A
:10050800116E2450D8B417D043500F1814E144503A
:100518001018D8A410D082B203D02A6A2A2A01D08F
:100528002A6A2A468B502A18FD0B2A188B6E000E51
:10053800106E000E0F6E4950D8B45ED041500D18A1
:100548005BE142500E18D8A457D081BC03D02A6A68
:100558002A2A01D02A6A2A3A2A462A468A502A187A
:10056800BF0B2A188A6E000E0E6E000E0D6E44D058
:100578009EAA1AD09E9A600E1B24D96E000E1C20CB
:10058800DA6EAECFDFFF1B4A1C2A0A0EAE18D8A4BB
:1005980033D060C0ADFF9EA8FED7010E226E000EBC
:1005A8001C6E000E1B6E28D09EAC17D09E9CC230CD
:1005B800E8320F0B0009D8A405D0C3CF17F0C4CF79
:1005C80018F01AD0C230E8320F0BE806D8A414D0BD
:1005D800C3CF15F0C4CF16F00FD0F0A005D0F0901F
:1005E8002350D8A407D004D0F0A206D0F092F8D7B0
:1005F800010E01D0000E236E3CC04FF03BC04EF000
:100608003AC04DF039C04CF038C0F5FF37C0F8FF9C
:1006180036C0F7FF35C0F6FF34C0F4FF33C0F3FF30
:1006280032C0DAFF31C0D9FF30C0E2FF2FC0E1FF8E
:100638002EC0EAFF2DC0E9FF2CC0FBFF2BC0FAFF3C
:100648004C921100000E806E000E896E000E816EB5
:10065800000E8A6E000E826E000E8B6E0D0EC16E3D
:100668009280C294C296C298C29AAC0EC06E9D8CFB
:100678009E9CC280929492969298929A9490949208
:10068800939E939C9494D09EF28EF28CF28AF2946C
:10069800F184D58CD59AD596D550F80B0509D56E29
:1006A800000ED76E060ED66E93829384F086F0887D
:1006B800F090F092F19AF198949C948EAC84B8865C
:1006C800CF0EAF6EAB8EAC98AC8AAB88AC9CAB9CB3
:1006D8009D8A9D98630ECB6ECF0EBD16FC0ECA1672
:1006E800CA84BD80BD82BD84BD861200000E000193
:1006F8007F6F000E7E6F7B517C11D8B41CD0010E29
:100708007D6F04D0D8907B377C377D2B7CAFFAD7B0
:10071800D8907E377F377B51795D7C517A59D8A044
:1007280005D07B51795F7C517A5B7E81D8907C3390
:100738007B337D2FEDD77EC079F07FC07AF0120031
:10074800000176517711D8B418D0010E786F04D013
:10075800D89076377737782B77AFFAD77651745D9C
:1007680077517559D8A004D07651745F7751755B6D
:10077800D89077337633782FF1D774C074F075C07A
:1007880075F012002A0EF66E080EF76E000EF86E5F
:1007980000EE3DF010EE0CF00900F5CFEEFFE5504D
:1007A800E150FAE100EE60F0140EEE6AE806FDE1B1
:1007B80000EE01F0290EEE6AE806FDE14C904C923D
:1007C800000109EF00F0000174517603F3CF78F0CF
:1007D800F4CF79F074517703F35079277551760384
:1007E800F350792778C074F079C075F012000AD0F8
:1007F80075C0D9FF76C0DAFFDF500EEC04F00001B7
:10080800754B762B75C0D9FF76C0DAFFDF50D8B4A8
:100818001200EED70001746F9EA8FED774C0ADFF1A
:100828001200320001001400050005000500D388FD
:0A083800D38AD38C030ED3121200F2
:020000040020DA
:08000000FFFFFFFFFFFFFFFF00
:020000040030CA
:0E0000000009191EFF8180FF0FC00FE00F40A6
:00000001FF
