:0400000007EF00F016
:100008001C8209ED00F08AEF00F00600FACF02F03A
:10001800FBCF03F0E9CF04F0EACF05F0E1CF06F01B
:10002800E2CF07F0D9CF08F0DACF09F0F3CF0AF022
:10003800F4CF0BF0F6CF0CF0F7CF0DF0F8CF0EF0B1
:10004800F5CF0FF01CC010F01DC011F01EC012F04B
:100058001FC013F0F2A412D0F294164A172A80B0E7
:1000680003D0016A012A01D0016A89500118FE0BE8
:100078000118896E000ED76E320ED66E13C01FF0AF
:1000880012C01EF011C01DF010C01CF00FC0F5FF0B
:100098000EC0F8FF0DC0F7FF0CC0F6FF0BC0F4FF51
:1000A8000AC0F3FF09C0DAFF08C0D9FF07C0E2FFA2
:1000B80006C0E1FF05C0EAFF04C0E9FF03C0FBFF7B
:1000C80002C0FAFF1C921100000E806E000E896EAD
:1000D800000E816E000E8A6E000E826E000E8B6E10
:1000E8000F0EC16E92909292D09EF28EF29CF28A7E
:1000F800F294F184D58CD59AD596D550F80B05098C
:10010800D56E000ED76E060ED66E1200620EF66E13
:10011800010EF76E000EF86E0900F5CF1AF009000F
:10012800F5CF1BF0196A186A176A166A156A146AF5
:100138001C901C920001A1EF00F0ABEC00F068EC01
:1001480000F018B002D0899201D08982FFD7D388F5
:0C015800D38AD38C030ED31212000100D6
:020000040020DA
:08000000FFFFFFFFFFFFFFFF00
:020000040030CA
:0E0000000009191EFF8180FF0FC00FE00F40A6
:00000001FF
