:0400000007EF00F016
:100008005482E3ED01F091EF03F005EC04F03BECD2
:1000180003F046C0BEFF1CB002D0899401D0898489
:100028001BB002D0899801D0898824B002D08B9067
:1000380001D08B801AB002D08A9E01D08A8E19B066
:1000480002D08A9A01D08A8A1950D8A404D0000113
:10005800896B892B02D00001896B893B8A508919E9
:10006800EF0B89198A6E1E04D8A47BD1000E1E6E70
:10007800420E6019D8A41BD0D00E6125836F846B03
:10008800FF0E8423000E866F0A0E856FBEEC03F008
:1000980000016251896F8A6B8351892784518A23B1
:1000A800D00E8925466EFF0E8A21476E66D1410E15
:1000B8006019D8A4E5D0D00E6125836F846BFF0E3C
:1000C8008423000E866F0A0E856FBEEC03F00001D4
:1000D8006251896F8A6B8351892784518A23D00E94
:1000E80089257F6FFF0E8A21806FD00E6325836F6D
:1000F800846BFF0E8423030E866FE80E856FBEECBB
:1001080003F000016651896F8A6B835189278451F6
:100118008A23D00E6425836F846BFF0E8423000E20
:10012800866F640E856FBEEC03F00001835189274A
:1001380084518A23D00E6525836F846BFF0E842338
:10014800000E866F0A0E856FBEEC03F00001835126
:10015800892784518A23D00E89257D6FFF0E8A2135
:100168007E6FD00E6725836F846BFF0E8423270E66
:10017800866F100E856FBEEC03F000016B51896F1E
:100188008A6B8351892784518A23D00E6825836F0F
:10019800846BFF0E8423030E866FE80E856FBEEC1A
:1001A80003F000018351892784518A23D00E6925E1
:1001B800836F846BFF0E8423000E866F640E856F39
:1001C800BEEC03F000018351892784518A23D00EA5
:1001D8006A25836F846BFF0E8423000E866F0A0ED8
:1001E800856FBEEC03F000018351892784518A236F
:1001F800D00E8925526EFF0E8A21536ED00E6C25C3
:10020800836F846BFF0E8423030E866FE80E856F61
:10021800BEEC03F000016F51896F8A6B8351892707
:1002280084518A23D00E6D25836F846BFF0E84233F
:10023800000E866F640E856FBEEC03F000018351DB
:10024800892784518A23D00E6E25836F846BFF0E15
:100258008423000E866F0A0E856FBEEC03F0000142
:100268008351892784518A23D00E8925506EFF0E29
:100278008A21516E6FC07BF07C6B010E1F6E7DD0A2
:10028800430E6019D8A408D01950D8A402D0010E82
:1002980001D0000E196E71D0440E6019D8A41DD07B
:1002A8001F50D8A41AD0300E6119D8A404D0010E5A
:1002B800266E000E07D0310E6119D8A405D0010EA4
:1002C800266E010E246E59D0320E6119D8A455D06D
:1002D800000E266E010E256E50D0450E6019D8A46A
:1002E80018D0300E6119D8A408D02050D8A402D054
:1002F800010E01D0000E206E40D0310E6119D8A435
:100308003CD01A50D8A402D0010E01D0000E1A6EAB
:1003180034D04D0E6019D8A430D0310E6119D8A44C
:1003280008D02350D8A402D0010E01D0000E236EAD
:1003380024D0320E6119D8A408D02150D8A402D0F4
:10034800010E01D0000E216E18D0330E6119D8A409
:1003580014D02650D8A402D0010E01D0000E266E6B
:100368000CD0C2B20AD00B0E0001896F620EE82EC3
:10037800FED7892FFCD700F0C2820150051809E189
:1003880002500618D8A405D01F50D8B402D0000EC9
:10039800206E2550D8B406D0010E266E26C023F054
:1003A800010E246E2250D8B434D6000E236E000EEF
:1003B800266E5A0EFEEC03F0000E226E2AD60600B8
:1003C800FACF34F0FBCF35F0E9CF36F0EACF37F08B
:1003D800E1CF38F0E2CF39F0D9CF3AF0DACF3BF0BD
:1003E800F3CF3CF0F4CF3DF0F6CF3EF0F7CF3FF03F
:1003F800F8CF40F0F5CF41F054C042F055C043F07B
:1004080056C044F057C045F0F2A4B7D0F294000E9D
:10041800D76EFA0ED66E114A122A0F4A102A0D4AC2
:100428000E2A0B4A0C2A2650D8B438D04A500D1838
:1004380035E14B500E18D8A431D082B203D0336ABC
:10044800332A01D0336A33468B503318FD0B3318E7
:100458008B6E000E0E6E000E0D6E2504D8A41ED0F5
:10046800074A082A52C02DF053C02EF0000E306EF5
:10047800010E2F6EE5EC03F007502D180FE1085020
:100488002E18D8A40BD02450D8A402D0010E01D025
:10049800000E246E000E086E000E076E2350D8B4AE
:1004A80032D04E5011182FE14F501218D8A42BD02B
:1004B80080B603D0336A332A01D0336A33463346D1
:1004C800334689503318F70B3318896E000E126EB5
:1004D800000E116E2550D8B416D0094A0A2AC80E43
:1004E80009180A10D8A406D0000E0A6E000E096E6C
:1004F800034A042A5050031806E151500418D8A49E
:1005080002D0010E226E2150D8B418D04C500F18CA
:1005180015E14D501018D8A411D080BA03D0336A11
:10052800332A01D0336A333A334689503318DF0B04
:100538003318896E000E106E000E0F6E2050D8B45E
:1005480070D048500B186DE149500C18D8A469D0E8
:1005580081BC03D0336A332A01D0336A333A334635
:1005680033468A503318BF0B33188A6E000E0C6E50
:10057800000E0B6E054A062A54D09EAA1AD09E9ADF
:10058800600E1724D96E000E1820DA6EAECFDFFF8A
:10059800174A182A0A0EAE18D8A443D060C0ADFF77
:1005A8009EA8FED7010E1E6E000E186E000E176E66
:1005B80038D09EAC06D09E9CC3CF13F0C4CF14F0A5
:1005C80030D0F0A015D0F0901F50D8B40CD0000E49
:1005D800236E000E216E000E266E000E206E310E68
:1005E8000BEC04F01ED02450D8A419D0010E18D05A
:1005F800F0A217D0F0921F50D8B40CD0000E236E82
:10060800000E216E000E266E000E206E310E0BECD1
:1006180004F007D02450D8A402D0010E01D0000E57
:10062800246E45C057F044C056F043C055F042C050
:1006380054F041C0F5FF40C0F8FF3FC0F7FF3EC08F
:10064800F6FF3DC0F4FF3CC0F3FF3BC0DAFF3AC001
:10065800D9FF39C0E2FF38C0E1FF37C0EAFF36C032
:10066800E9FF35C0FBFF34C0FAFF54921100000EB9
:10067800806E000E896E000E816E000E8A6E000E6E
:10068800826E000E8B6E0D0EC16E9280C294C29661
:10069800C298C29AAC0EC06E9D8C9E9CC2809294E9
:1006A80092969298929A94909492939E939C9494F2
:1006B8009398939AD09EF28EF28CF28AF294F184F7
:1006C800D58CD59AD596D550F80B0509D56E000E60
:1006D800D76E060ED66E93829384F086F088F090DB
:1006E800F092F19AF198949C948EAC84B886CF0ECF
:1006F800AF6EAB8EAC98AC8AAB88AC9CAB9C9D8A39
:100708009D98630ECB6ECF0EBD16FC0ECA16CA841A
:10071800BD80BD82BD84BD861200220EF66E080E15
:10072800F76E000EF86E0900F5CF8BF00900F5CFD3
:100738008CF0EE0EF66E070EF76E000EF86E00EEF9
:1007480046F010EE0EF00900F5CFEEFFE550E1504F
:10075800FAE100EE60F0230EEE6AE806FDE100EE35
:1007680001F0260EEE6AE806FDE15490549200016D
:1007780009EF00F0000183518503F3CF87F0F4CF30
:1007880088F083518603F350882784518503F350FA
:10079800882787C083F088C084F012002750290278
:1007A800F3CF2BF0F4CF2CF027502A02F3502C264D
:1007B80028502902F3502C262BC027F02CC028F0F3
:1007C80012002FC027F030C028F02DC029F02EC00D
:1007D8002AF0D2EC03F0D8902830316E27302D6EF5
:1007E80031C02EF01200320005008400050002001E
:1007F800140028230001836F9EA8FED783C0ADFF95
:100808001200D388D38AD38C030ED3121200276E1A
:0C0818009EA8FED727C0ADFF1200010013
:020000040020DA
:08000000FFFFFFFFFFFFFFFF00
:020000040030CA
:0E0000000009191EFF8180FF0FC00FE00F40A6
:00000001FF
