:0400000007EF00F016
:100008004B828FED01F0EFEF02F02AEC03F09BEC4E
:1000180002F0010E4A6E010E496E010E486E3CC098
:10002800BEFF20B002D0899401D089841FB002D0CD
:10003800899801D0898823B002D08B9001D08B8019
:100048001EB002D08A9E01D08A8E2204D8A443D141
:10005800000E226E420E00016019D8A41BD0D00EEB
:100068006125386E396AFF0E3922000E3B6E0A0E82
:100078003A6E10EC03F000016251766F776B3850DE
:10008800762739507723D00E76253C6EFF0E7721E0
:100098003D6EBFD7410E6019D8A4E5D0D00E6125BA
:1000A800386E396AFF0E3922000E3B6E0A0E3A6E20
:1000B80010EC03F000016251766F776B38507627A9
:1000C80039507723D00E7625096EFF0E77210A6EF8
:1000D800D00E6325386E396AFF0E3922030E3B6E47
:1000E800E80E3A6E10EC03F000016651766F776BFC
:1000F8003850762739507723D00E6425386E396A00
:10010800FF0E3922000E3B6E640E3A6E10EC03F0BF
:1001180038500001762739507723D00E6525386E80
:10012800396AFF0E3922000E3B6E0A0E3A6E10EC49
:1001380003F038500001762739507723D00E762502
:10014800076EFF0E7721086ED00E6725386E396A64
:10015800FF0E3922270E3B6E100E3A6E10EC03F09C
:1001680000016B51766F776B3850762739507723BB
:10017800D00E6825386E396AFF0E3922030E3B6EA1
:10018800E80E3A6E10EC03F038500001762739502B
:100198007723D00E6925386E396AFF0E3922000E92
:1001A8003B6E640E3A6E10EC03F03850000176276F
:1001B80039507723D00E6A25386E396AFF0E3922F6
:1001C800000E3B6E0A0E3A6E10EC03F03850000138
:1001D800762739507723D00E7625056EFF0E7721C6
:1001E800066ED00E6C25386E396AFF0E3922030E62
:1001F8003B6EE80E3A6E10EC03F000016F51766F1B
:10020800776B3850762739507723D00E6D25386EA6
:10021800396AFF0E3922000E3B6E640E3A6E10ECFE
:1002280003F038500001762739507723D00E6E2519
:10023800386E396AFF0E3922000E3B6E0A0E3A6E8E
:1002480010EC03F038500001762739507723D00E90
:100258007625036EFF0E7721046E6FC001F0026AE7
:10026800010E1D6ED6D6440E6019D8A418D0300ED3
:100278006119D8A404D0010E246E000E07D0310EE7
:100288006119D8A405D0010E246E010E236EC1D6C3
:10029800320E6119D8A4BDD6000E246EBAD6450E0A
:1002A8006019D8A4B6D6300E6119D8A408D0485021
:1002B800D8A402D0010E01D0000E486EAAD6310E85
:1002C8006119D8A4A6D61E50D8A402D0010E01D018
:1002D800000E1E6E9ED6C2B29CD61A0E0001766F14
:1002E800F80EE82EFED7762FFCD700F0C230E832A1
:1002F8000F0B0009D8A404D00001766B762B02D02E
:100308000001766B76477647C2507619C30B76198B
:10031800C26EC2827ED60600FACF26F0FBCF27F047
:10032800E9CF28F0EACF29F0E1CF2AF0E2CF2BF08D
:10033800D9CF2CF0DACF2DF0F3CF2EF0F4CF2FF069
:10034800F6CF30F0F7CF31F0F8CF32F0F5CF33F009
:100358004BC034F04CC035F04DC036F04EC037F0CD
:10036800F2A47BD0F294000ED76EFA0ED66E134A22
:10037800142A114A122A0F4A102A0D4A0E2A4A50E4
:10038800D8B419D04650131816E147501418D8A4F9
:1003980012D080B603D0256A252A01D0256A2546C1
:1003A8002546254689502518F70B2518896E000E15
:1003B800146E000E136E4950D8B418D0445011185A
:1003C80015E145501218D8A411D080BA03D0256A77
:1003D800252A01D0256A253A254689502518DF0B9C
:1003E8002518896E000E126E000E116E2450D8B4B6
:1003F80017D042500F1814E143501018D8A410D049
:1004080082B203D0256A252A01D0256A25468B5059
:100418002518FD0B25188B6E000E106E000E0F6E42
:100428004850D8B45ED040500D185BE141500E18CA
:10043800D8A457D081BC03D0256A252A01D0256AC3
:10044800253A254625468A502518BF0B25188A6E59
:10045800000E0E6E000E0D6E44D09EAA1AD09E9A03
:10046800600E1B24D96E000E1C20DA6EAECFDFFFA3
:100478001B4A1C2A0A0EAE18D8A433D060C0ADFFA0
:100488009EA8FED7010E226E000E1C6E000E1B6E7B
:1004980028D09EAC17D09E9CC230E8320F0B0009C2
:1004A800D8A405D0C3CF17F0C4CF18F01AD0C230E3
:1004B800E8320F0BE806D8A414D0C3CF15F0C4CF88
:1004C80016F00FD0F0A005D0F0902350D8A407D094
:1004D80004D0F0A206D0F092F8D7010E01D0000E99
:1004E800236E37C04EF036C04DF035C04CF034C0E6
:1004F8004BF033C0F5FF32C0F8FF31C0F7FF30C012
:10050800F6FF2FC0F4FF2EC0F3FF2DC0DAFF2CC07A
:10051800D9FF2BC0E2FF2AC0E1FF29C0EAFF28C0AB
:10052800E9FF27C0FBFF26C0FAFF4B921100000E1F
:10053800806E000E896E000E816E000E8A6E000EAF
:10054800826E000E8B6E0D0EC16E9280C294C296A2
:10055800C298C29AAC0EC06E9D8C9E9CC28092942A
:1005680092969298929A94909492939E939C949433
:10057800D09EF28EF28CF28AF294F184D58CD59AC0
:10058800D596D550F80B0509D56E000ED76E060E18
:10059800D66E93829384F086F088F090F092F19A68
:1005A800F198949C948EAC84B886CF0EAF6EAB8EC7
:1005B800AC98AC8AAB88AC9CAB9C9D8A9D98630E2A
:1005C800CB6ECF0EBD16FC0ECA16CA84BD80BD8286
:1005D800BD84BD861200480EF66E060EF76E000E3C
:1005E800F86E00EE3CF010EE0CF00900F5CFEEFFCF
:1005F800E550E150FAE100EE60F0140EEE6AE8060C
:10060800FDE100EE01F0240EEE6AE806FDE14B90F4
:100618004B92000109EF00F038503A02F3CF74F022
:10062800F4CF75F038503B02F3500001752739506C
:100638003A02F350752774C038F075C039F01200CB
:10064800320001001400050005000500D388D38A94
:08065800D38C030ED312120033
:020000040020DA
:08000000FFFFFFFFFFFFFFFF00
:020000040030CA
:0E0000000009191EFF8180FF0FC00FE00F40A6
:00000001FF
