:0400000007EF00F016
:100008001C8209ED00F09CEF00F00600FACF01F029
:10001800FBCF02F0E9CF03F0EACF04F0E1CF05F01F
:10002800E2CF06F0D9CF07F0DACF08F0F3CF09F026
:10003800F4CF0AF0F6CF0BF0F7CF0CF0F8CF0DF0B5
:10004800F5CF0EF01CC00FF01DC010F01EC011F04F
:100058001FC012F0F2A404D0F294D58E164A172AC3
:1000680012C01FF011C01EF010C01DF00FC01CF010
:100078000EC0F5FF0DC0F8FF0CC0F7FF0BC0F6FF70
:100088000AC0F4FF09C0F3FF08C0DAFF07C0D9FFB0
:1000980006C0E2FF05C0E1FF04C0EAFF03C0E9FFB4
:1000A80002C0FBFF01C0FAFF1C921100000E806E17
:1000B800000E896E000E816E000E8A6E000E826E32
:1000C800000E8B6E0F0EC16E92909292D09EF28EA1
:1000D800F29CF28AF294F184D59CD59AD596D59063
:1000E800D592D5949E0ED76E580ED66ED58E120028
:1000F800B4EC00F05AEC00F016B00CD01950D8A4AB
:1001080003D0136A132A01D0136A89501318FE0BFF
:100118001318896E18B002D0899201D089821628E6
:100128001710D8A4E9D7000E176E000E166EE4D784
:10013800660EF66E010EF76E000EF86E0900F5CF2A
:100148001AF00900F5CF1BF0196A186A176A166ABF
:10015800156A146A1C901C9200017CEF00F00100E3
:02016800120083
:020000040020DA
:08000000FFFFFFFFFFFFFFFF00
:020000040030CA
:0E0000000009191EFF8180FF0FC00FE00F40A6
:00000001FF
